{
  "contractName": "ThriftManager",
  "abi": [
    {
      "inputs": [],
      "stateMutability": "nonpayable",
      "type": "constructor"
    },
    {
      "stateMutability": "payable",
      "type": "fallback"
    },
    {
      "inputs": [],
      "name": "PENALTY_FEE",
      "outputs": [
        {
          "internalType": "uint256",
          "name": "",
          "type": "uint256"
        }
      ],
      "stateMutability": "view",
      "type": "function"
    },
    {
      "stateMutability": "payable",
      "type": "receive"
    },
    {
      "inputs": [
        {
          "internalType": "uint256",
          "name": "_maxParticipants",
          "type": "uint256"
        },
        {
          "internalType": "uint256",
          "name": "_roundAmount",
          "type": "uint256"
        },
        {
          "internalType": "uint256",
          "name": "_roundPeriod",
          "type": "uint256"
        }
      ],
      "name": "createThrift",
      "outputs": [
        {
          "internalType": "bool",
          "name": "",
          "type": "bool"
        }
      ],
      "stateMutability": "payable",
      "type": "function"
    },
    {
      "inputs": [
        {
          "internalType": "uint256",
          "name": "_thriftID",
          "type": "uint256"
        }
      ],
      "name": "joinThrift",
      "outputs": [
        {
          "internalType": "bool",
          "name": "",
          "type": "bool"
        }
      ],
      "stateMutability": "payable",
      "type": "function"
    },
    {
      "inputs": [
        {
          "internalType": "uint256",
          "name": "_thriftID",
          "type": "uint256"
        }
      ],
      "name": "contributeToThrift",
      "outputs": [
        {
          "internalType": "bool",
          "name": "",
          "type": "bool"
        }
      ],
      "stateMutability": "payable",
      "type": "function"
    },
    {
      "inputs": [
        {
          "internalType": "uint256",
          "name": "_thriftID",
          "type": "uint256"
        }
      ],
      "name": "closeThrift",
      "outputs": [
        {
          "internalType": "bool",
          "name": "",
          "type": "bool"
        }
      ],
      "stateMutability": "nonpayable",
      "type": "function"
    },
    {
      "inputs": [
        {
          "internalType": "uint256",
          "name": "_newFees",
          "type": "uint256"
        }
      ],
      "name": "updatePenaltyFee",
      "outputs": [
        {
          "internalType": "bool",
          "name": "",
          "type": "bool"
        }
      ],
      "stateMutability": "nonpayable",
      "type": "function"
    },
    {
      "inputs": [],
      "name": "getPenaltyFee",
      "outputs": [
        {
          "internalType": "uint256",
          "name": "",
          "type": "uint256"
        }
      ],
      "stateMutability": "view",
      "type": "function"
    },
    {
      "inputs": [
        {
          "internalType": "uint256",
          "name": "_thriftID",
          "type": "uint256"
        }
      ],
      "name": "getMinStake",
      "outputs": [
        {
          "internalType": "uint256",
          "name": "",
          "type": "uint256"
        }
      ],
      "stateMutability": "view",
      "type": "function"
    },
    {
      "inputs": [
        {
          "internalType": "uint256",
          "name": "_thriftID",
          "type": "uint256"
        }
      ],
      "name": "thriftValid",
      "outputs": [
        {
          "internalType": "bool",
          "name": "",
          "type": "bool"
        }
      ],
      "stateMutability": "view",
      "type": "function"
    },
    {
      "inputs": [
        {
          "internalType": "address",
          "name": "_to",
          "type": "address"
        },
        {
          "internalType": "uint256",
          "name": "amount",
          "type": "uint256"
        }
      ],
      "name": "_sendViaCall",
      "outputs": [],
      "stateMutability": "payable",
      "type": "function"
    }
  ],
  "bytecode": "0x608060405266038d7ea4c6800060025534801561001b57600080fd5b5061002a61006e60201b60201c565b6000806101000a81548173ffffffffffffffffffffffffffffffffffffffff021916908373ffffffffffffffffffffffffffffffffffffffff160217905550610076565b600033905090565b612465806100856000396000f3fe6080604052600436106100955760003560e01c80639412c7dd116100595780639412c7dd14610215578063a673e31a14610245578063c9b1d38b14610270578063db4de45e1461028c578063f1d3831e146102c9576100d5565b80631ba8be6d1461011057806346d32b421461014057806373f231e71461017d57806377550610146101ba578063928c7d80146101e5576100d5565b366100d5576040517f08c379a00000000000000000000000000000000000000000000000000000000081526004016100cc90611b59565b60405180910390fd5b6040517f08c379a000000000000000000000000000000000000000000000000000000000815260040161010790611cf9565b60405180910390fd5b61012a6004803603810190610125919061179d565b610306565b6040516101379190611afe565b60405180910390f35b34801561014c57600080fd5b5061016760048036038101906101629190611774565b61063f565b6040516101749190611afe565b60405180910390f35b34801561018957600080fd5b506101a4600480360381019061019f9190611774565b610822565b6040516101b19190611d99565b60405180910390f35b3480156101c657600080fd5b506101cf610885565b6040516101dc9190611d99565b60405180910390f35b6101ff60048036038101906101fa9190611774565b61088f565b60405161020c9190611afe565b60405180910390f35b61022f600480360381019061022a9190611774565b611035565b60405161023c9190611afe565b60405180910390f35b34801561025157600080fd5b5061025a611317565b6040516102679190611d99565b60405180910390f35b61028a60048036038101906102859190611738565b61131d565b005b34801561029857600080fd5b506102b360048036038101906102ae9190611774565b611454565b6040516102c09190611afe565b60405180910390f35b3480156102d557600080fd5b506102f060048036038101906102eb9190611774565b611462565b6040516102fd9190611afe565b60405180910390f35b600080841180156103185750600a8411155b610357576040517f08c379a000000000000000000000000000000000000000000000000000000000815260040161034e90611bd9565b60405180910390fd5b6000831161039a576040517f08c379a000000000000000000000000000000000000000000000000000000000815260040161039190611cd9565b60405180910390fd5b600082116103dd576040517f08c379a00000000000000000000000000000000000000000000000000000000081526004016103d490611c19565b60405180910390fd5b6000600460006001548152602001908152602001600020905060015481600001819055508481600101819055506001816002018190555083816004018190555061042561154d565b8160090160006101000a81548173ffffffffffffffffffffffffffffffffffffffff021916908373ffffffffffffffffffffffffffffffffffffffff160217905550828160070181905550610478611555565b8160080181905550600060025485876104919190611e26565b61049b9190611dd0565b90508082600301819055508060056000600154815260200190815260200160002081905550806104c961155d565b101561050a576040517f08c379a000000000000000000000000000000000000000000000000000000000815260040161050190611d39565b60405180910390fd5b61051261154d565b82600a01600080815260200190815260200160002060006101000a81548173ffffffffffffffffffffffffffffffffffffffff021916908373ffffffffffffffffffffffffffffffffffffffff160217905550600182600b01600061057561154d565b73ffffffffffffffffffffffffffffffffffffffff1673ffffffffffffffffffffffffffffffffffffffff16815260200190815260200160002060006101000a81548160ff0219169083151502179055506105ce61155d565b82600c0160006105dc61154d565b73ffffffffffffffffffffffffffffffffffffffff1673ffffffffffffffffffffffffffffffffffffffff168152602001908152602001600020819055506001600081548092919061062d90611efc565b91905055506001925050509392505050565b60008060046000848152602001908152602001600020905060008160090160159054906101000a900460ff1690506000826002015483600701546106839190611e26565b83600801546106929190611dd0565b61069a611555565b119050811580156106a85750805b6106e7576040517f08c379a00000000000000000000000000000000000000000000000000000000081526004016106de90611d19565b60405180910390fd5b60005b83600201548110156107f857600084600f01600086600501548152602001908152602001600020600086600a01600085815260200190815260200160002060009054906101000a900473ffffffffffffffffffffffffffffffffffffffff1673ffffffffffffffffffffffffffffffffffffffff1673ffffffffffffffffffffffffffffffffffffffff16815260200190815260200160002054905060008111156107e45760008560030154826107a19190611dd0565b90506107e286600a01600085815260200190815260200160002060009054906101000a900473ffffffffffffffffffffffffffffffffffffffff168261131d565b505b5080806107f090611efc565b9150506106ea565b5060018360090160156101000a81548160ff02191690831515021790555060019350505050919050565b6000816001548110610869576040517f08c379a000000000000000000000000000000000000000000000000000000000815260040161086090611bf9565b60405180910390fd5b6005600084815260200190815260200160002054915050919050565b6000600254905090565b60008160015481106108d6576040517f08c379a00000000000000000000000000000000000000000000000000000000081526004016108cd90611bf9565b60405180910390fd5b6108e7836108e261154d565b611565565b610926576040517f08c379a000000000000000000000000000000000000000000000000000000000815260040161091d90611d59565b60405180910390fd5b61092f8361161c565b61096e576040517f08c379a000000000000000000000000000000000000000000000000000000000815260040161096590611bb9565b60405180910390fd5b61097783611695565b156109b7576040517f08c379a00000000000000000000000000000000000000000000000000000000081526004016109ae90611b99565b60405180910390fd5b6000600460008581526020019081526020016000209050600081600201549050600082600501549050600083600f0160008381526020019081526020016000206000610a0161154d565b73ffffffffffffffffffffffffffffffffffffffff1673ffffffffffffffffffffffffffffffffffffffff1681526020019081526020016000205414610a7c576040517f08c379a0000000000000000000000000000000000000000000000000000000008152600401610a7390611c79565b60405180910390fd5b6000610a8661155d565b118015610a9e57508260040154610a9b61155d565b10155b610add576040517f08c379a0000000000000000000000000000000000000000000000000000000008152600401610ad490611b39565b60405180910390fd5b6000811415610c9957600083600701548460080154610afc9190611dd0565b610b04611555565b1190508015610c935760005b83811015610c6857600085600f016000858152602001908152602001600020600087600a01600085815260200190815260200160002060009054906101000a900473ffffffffffffffffffffffffffffffffffffffff1673ffffffffffffffffffffffffffffffffffffffff1673ffffffffffffffffffffffffffffffffffffffff168152602001908152602001600020541115610c5557600085600a01600083815260200190815260200160002060009054906101000a900473ffffffffffffffffffffffffffffffffffffffff1690506000866003015487600f01600085815260200190815260200160002060008473ffffffffffffffffffffffffffffffffffffffff1673ffffffffffffffffffffffffffffffffffffffff16815260200190815260200160002054610c469190611dd0565b9050610c52828261131d565b50505b8080610c6090611efc565b915050610b10565b5060018460090160156101000a81548160ff021916908315150217905550600095505050505061102f565b50610e65565b6000836007015484600d016000600185610cb39190611e80565b815260200190815260200160002054610ccc9190611dd0565b610cd4611555565b1190508015610e635760005b83811015610e3857600085600f016000858152602001908152602001600020600087600a01600085815260200190815260200160002060009054906101000a900473ffffffffffffffffffffffffffffffffffffffff1673ffffffffffffffffffffffffffffffffffffffff1673ffffffffffffffffffffffffffffffffffffffff168152602001908152602001600020541115610e2557600085600a01600083815260200190815260200160002060009054906101000a900473ffffffffffffffffffffffffffffffffffffffff1690506000866003015487600f01600085815260200190815260200160002060008473ffffffffffffffffffffffffffffffffffffffff1673ffffffffffffffffffffffffffffffffffffffff16815260200190815260200160002054610e169190611dd0565b9050610e22828261131d565b50505b8080610e3090611efc565b915050610ce0565b5060018460090160156101000a81548160ff021916908315150217905550600095505050505061102f565b505b6001836006016000828254610e7a9190611dd0565b92505081905550610e8961155d565b83600f0160008381526020019081526020016000206000610ea861154d565b73ffffffffffffffffffffffffffffffffffffffff1673ffffffffffffffffffffffffffffffffffffffff168152602001908152602001600020819055508183600601541415610ff557600183600e01600083815260200190815260200160002060006101000a81548160ff021916908315150217905550610f28611555565b83600d01600083815260200190815260200160002081905550600083600a01600083815260200190815260200160002060009054906101000a900473ffffffffffffffffffffffffffffffffffffffff169050610fd78185600f01600085815260200190815260200160002060008473ffffffffffffffffffffffffffffffffffffffff1673ffffffffffffffffffffffffffffffffffffffff1681526020019081526020016000205461131d565b6001846005016000828254610fec9190611dd0565b92505081905550505b818161100090611efc565b91508114156110275760018360090160156101000a81548160ff0219169083151502179055505b600194505050505b50919050565b600081600154811061107c576040517f08c379a000000000000000000000000000000000000000000000000000000000815260040161107390611bf9565b60405180910390fd5b826004600082815260200190815260200160002060090160149054906101000a900460ff16156110e1576040517f08c379a00000000000000000000000000000000000000000000000000000000081526004016110d890611cb9565b60405180910390fd5b6110f2846110ed61154d565b611565565b156111005760009250611310565b6111098461161c565b15611149576040517f08c379a000000000000000000000000000000000000000000000000000000000815260040161114090611c99565b60405180910390fd5b6000600460008681526020019081526020016000209050600081600201549050600182600201600082825461117e9190611dd0565b92505081905550816003015461119261155d565b10156111d3576040517f08c379a00000000000000000000000000000000000000000000000000000000081526004016111ca90611d39565b60405180910390fd5b6111db61154d565b82600a01600083815260200190815260200160002060006101000a81548173ffffffffffffffffffffffffffffffffffffffff021916908373ffffffffffffffffffffffffffffffffffffffff16021790555061123661155d565b82600c01600061124461154d565b73ffffffffffffffffffffffffffffffffffffffff1673ffffffffffffffffffffffffffffffffffffffff1681526020019081526020016000208190555081600101548260020154101561129d57600194505050611310565b8160010154826002015414156112d55760018260090160146101000a81548160ff021916908315150217905550600194505050611310565b6040517f08c379a000000000000000000000000000000000000000000000000000000000815260040161130790611c59565b60405180910390fd5b5050919050565b60025481565b600360009054906101000a900460ff161561136d576040517f08c379a000000000000000000000000000000000000000000000000000000000815260040161136490611b19565b60405180910390fd5b6001600360006101000a81548160ff02191690831515021790555060008273ffffffffffffffffffffffffffffffffffffffff16826040516113ae90611ae9565b60006040518083038185875af1925050503d80600081146113eb576040519150601f19603f3d011682016040523d82523d6000602084013e6113f0565b606091505b505090506000600360006101000a81548160ff0219169083151502179055508061144f576040517f08c379a000000000000000000000000000000000000000000000000000000000815260040161144690611b79565b60405180910390fd5b505050565b600060015482109050919050565b60008060009054906101000a900473ffffffffffffffffffffffffffffffffffffffff1673ffffffffffffffffffffffffffffffffffffffff166114a461154d565b73ffffffffffffffffffffffffffffffffffffffff16146114fa576040517f08c379a00000000000000000000000000000000000000000000000000000000081526004016114f190611d79565b60405180910390fd5b6000821161153d576040517f08c379a000000000000000000000000000000000000000000000000000000000815260040161153490611c39565b60405180910390fd5b8160028190555060019050919050565b600033905090565b600042905090565b600034905090565b60008260015481106115ac576040517f08c379a00000000000000000000000000000000000000000000000000000000081526004016115a390611bf9565b60405180910390fd5b600060046000868152602001908152602001600020905080600b0160008573ffffffffffffffffffffffffffffffffffffffff1673ffffffffffffffffffffffffffffffffffffffff16815260200190815260200160002060009054906101000a900460ff169250505092915050565b6000816001548110611663576040517f08c379a000000000000000000000000000000000000000000000000000000000815260040161165a90611bf9565b60405180910390fd5b60006004600085815260200190815260200160002090508060090160149054906101000a900460ff1692505050919050565b60008160015481106116dc576040517f08c379a00000000000000000000000000000000000000000000000000000000081526004016116d390611bf9565b60405180910390fd5b60006004600085815260200190815260200160002090508060090160159054906101000a900460ff1692505050919050565b60008135905061171d81612401565b92915050565b60008135905061173281612418565b92915050565b6000806040838503121561174b57600080fd5b60006117598582860161170e565b925050602061176a85828601611723565b9150509250929050565b60006020828403121561178657600080fd5b600061179484828501611723565b91505092915050565b6000806000606084860312156117b257600080fd5b60006117c086828701611723565b93505060206117d186828701611723565b92505060406117e286828701611723565b9150509250925092565b6117f581611ec6565b82525050565b6000611808601d83611dbf565b915061181382611f74565b602082019050919050565b600061182b602c83611dbf565b915061183682611f9d565b604082019050919050565b600061184e602083611dbf565b915061185982611fec565b602082019050919050565b6000611871601483611dbf565b915061187c82612015565b602082019050919050565b6000611894601983611dbf565b915061189f8261203e565b602082019050919050565b60006118b7602383611dbf565b91506118c282612067565b604082019050919050565b60006118da602483611dbf565b91506118e5826120b6565b604082019050919050565b60006118fd601483611dbf565b915061190882612105565b602082019050919050565b6000611920601d83611dbf565b915061192b8261212e565b602082019050919050565b6000611943601c83611dbf565b915061194e82612157565b602082019050919050565b6000611966602083611dbf565b915061197182612180565b602082019050919050565b6000611989602283611dbf565b9150611994826121a9565b604082019050919050565b60006119ac601683611dbf565b91506119b7826121f8565b602082019050919050565b60006119cf602183611dbf565b91506119da82612221565b604082019050919050565b60006119f2602383611dbf565b91506119fd82612270565b604082019050919050565b6000611a15600083611db4565b9150611a20826122bf565b600082019050919050565b6000611a38602d83611dbf565b9150611a43826122c2565b604082019050919050565b6000611a5b603183611dbf565b9150611a6682612311565b604082019050919050565b6000611a7e602d83611dbf565b9150611a8982612360565b604082019050919050565b6000611aa1601983611dbf565b9150611aac826123af565b602082019050919050565b6000611ac4601683611dbf565b9150611acf826123d8565b602082019050919050565b611ae381611ef2565b82525050565b6000611af482611a08565b9150819050919050565b6000602082019050611b1360008301846117ec565b92915050565b60006020820190508181036000830152611b32816117fb565b9050919050565b60006020820190508181036000830152611b528161181e565b9050919050565b60006020820190508181036000830152611b7281611841565b9050919050565b60006020820190508181036000830152611b9281611864565b9050919050565b60006020820190508181036000830152611bb281611887565b9050919050565b60006020820190508181036000830152611bd2816118aa565b9050919050565b60006020820190508181036000830152611bf2816118cd565b9050919050565b60006020820190508181036000830152611c12816118f0565b9050919050565b60006020820190508181036000830152611c3281611913565b9050919050565b60006020820190508181036000830152611c5281611936565b9050919050565b60006020820190508181036000830152611c7281611959565b9050919050565b60006020820190508181036000830152611c928161197c565b9050919050565b60006020820190508181036000830152611cb28161199f565b9050919050565b60006020820190508181036000830152611cd2816119c2565b9050919050565b60006020820190508181036000830152611cf2816119e5565b9050919050565b60006020820190508181036000830152611d1281611a2b565b9050919050565b60006020820190508181036000830152611d3281611a4e565b9050919050565b60006020820190508181036000830152611d5281611a71565b9050919050565b60006020820190508181036000830152611d7281611a94565b9050919050565b60006020820190508181036000830152611d9281611ab7565b9050919050565b6000602082019050611dae6000830184611ada565b92915050565b600081905092915050565b600082825260208201905092915050565b6000611ddb82611ef2565b9150611de683611ef2565b9250827fffffffffffffffffffffffffffffffffffffffffffffffffffffffffffffffff03821115611e1b57611e1a611f45565b5b828201905092915050565b6000611e3182611ef2565b9150611e3c83611ef2565b9250817fffffffffffffffffffffffffffffffffffffffffffffffffffffffffffffffff0483118215151615611e7557611e74611f45565b5b828202905092915050565b6000611e8b82611ef2565b9150611e9683611ef2565b925082821015611ea957611ea8611f45565b5b828203905092915050565b6000611ebf82611ed2565b9050919050565b60008115159050919050565b600073ffffffffffffffffffffffffffffffffffffffff82169050919050565b6000819050919050565b6000611f0782611ef2565b91507fffffffffffffffffffffffffffffffffffffffffffffffffffffffffffffffff821415611f3a57611f39611f45565b5b600182019050919050565b7f4e487b7100000000000000000000000000000000000000000000000000000000600052601160045260246000fd5b7f72652d72656e7472616e742063616c6c73206e6f7420616c6c6f776564000000600082015250565b7f45746865722073656e74206d75737420657863656564207a65726f20616e642060008201527f726f756e7420616d6f756e740000000000000000000000000000000000000000602082015250565b7f466f72636566756c204554484552207472616e736665722072656a6563746564600082015250565b7f4661696c656420746f2073656e64204574686572000000000000000000000000600082015250565b7f54687269667420686173206265656e20636f6d706c6574656400000000000000600082015250565b7f54687269667420636f6e747269627574696f6e2069732079657420746f20737460008201527f6172740000000000000000000000000000000000000000000000000000000000602082015250565b7f4f6e6c79206f6e6520746f2074656e207061727469636970616e747320616c6c60008201527f6f77656400000000000000000000000000000000000000000000000000000000602082015250565b7f546872696674206e6f74206578697374656e6365000000000000000000000000600082015250565b7f526f756e6420706572696f64206d75737420657863656564207a65726f000000600082015250565b7f50656e616c747920666565206d75737420657863656564207a65726f00000000600082015250565b7f4d6178207061727469636970616e7473207265616368656420616c7265616479600082015250565b7f43616e6e6f7420636f6e7472696275746520747769636520746f206120726f7560008201527f6e64000000000000000000000000000000000000000000000000000000000000602082015250565b7f54687269667420616c7265616479207374617274656400000000000000000000600082015250565b7f54687269667420636c6f73656420746f206e6577207061727469636970616e7460008201527f7300000000000000000000000000000000000000000000000000000000000000602082015250565b7f526f756e6420636f6e747269627574696f6e206d75737420657863656564207a60008201527f65726f0000000000000000000000000000000000000000000000000000000000602082015250565b50565b7f556e6b6e6f776e20636f6e74726163742063616c6c204554484552207472616e60008201527f736665722072656a656374656400000000000000000000000000000000000000602082015250565b7f54687269667420616c726561647920636f6d706c65746564206f72206465616460008201527f6c696e65206e6f74206578636565646564000000000000000000000000000000602082015250565b7f53656e6420457468657220616d6f756e74206571756976616c656e7420746f2060008201527f6d696e696d756d207374616b6500000000000000000000000000000000000000602082015250565b7f41646472657373206e6f74206120636f6e7472696275746f7200000000000000600082015250565b7f53656e646572206973206e6f7420616e2061646d696e00000000000000000000600082015250565b61240a81611eb4565b811461241557600080fd5b50565b61242181611ef2565b811461242c57600080fd5b5056fea2646970667358221220299caca6c7ef8454d1d55d52b62dd04d595447009af1204b8e4ce73d591bbd6f64736f6c63430008010033",
  "immutableReferences": {},
  "source": "// SPDX-License-Identifier: MIT\npragma solidity ^0.8.1;\n\ncontract ThriftManager {\n    // address with priviledge to adjust contract parameters\n    address admin;\n\n    // tracks the thrift count explicitly and ID implicitly\n    uint256 nextThriftId;\n\n    // fee for defaulting thrift participants is sinked to the contract account\n    uint256 public PENALTY_FEE = 0.001 ether;\n\n    // lock to guard reentrancy\n    bool lock;\n\n    // constructor\n    constructor() {\n        admin = _msgSender();\n    }\n\n    // defines the thrift struct\n    struct Thrift {\n        uint256 id;\n        uint256 maxParticipants;\n        uint256 numParticipants;            // number of participants in the thrift\n        uint256 minStake;\n        uint256 roundAmount;                // per participant contribution amount in a round\n        uint256 curRound;                   // tracks the current round count\n        uint256 roundContributionCount;     // track participants count that has contributed for every round\n        uint256 roundPeriod;                // time allowed for every round\n        uint startTime;                     // tracks time when thrift kickstarts\n        address creator;                    // address that started the thrift\n        bool start;                         // starts when max participants is reached\n        bool completed;                     // completed when all participants funds has been disbursed or a paricipant defaults oncontribution\n        mapping(uint256 => address payable) contributorsRank;\n        mapping(address => bool) contributors;\n        mapping(address => uint256) hasStaked;\n        mapping(uint256 => uint256) roundCompletionTime;                                // tracks when rounds are completed\n        mapping(uint256 => bool) roundCompleted;                                        // track round completion incrementally\n        mapping(uint256 => mapping(address => uint256)) roundContributionAmount;        // track  participants contribution for a given round\n    }\n\n    mapping(uint256 => Thrift) thrifts;\n    mapping(uint256 => uint256) thriftMinStake;                                         // track funds in any given thrift\n\n    // start a new thrift\n    function createThrift(uint256 _maxParticipants, uint256 _roundAmount,uint256 _roundPeriod) payable external returns(bool) {\n        require(_maxParticipants > 0 && _maxParticipants <= 10, \"Only one to ten participants allowed\");\n        require(_roundAmount > 0, \"Round contribution must exceed zero\");\n        require(_roundPeriod > 0, \"Round period must exceed zero\");\n        Thrift storage newThrift = thrifts[nextThriftId];\n        newThrift.id = nextThriftId;\n        newThrift.maxParticipants = _maxParticipants;\n        newThrift.numParticipants = 1;\n        newThrift.roundAmount = _roundAmount;\n        newThrift.creator = _msgSender();\n        newThrift.roundPeriod = _roundPeriod;\n        newThrift.startTime = _timeStamp();\n        uint256 _minStake = (_maxParticipants * _roundAmount) + PENALTY_FEE;\n        newThrift.minStake = _minStake;\n        thriftMinStake[nextThriftId] = _minStake;\n        // creator should deposit minimum stake\n        require(_msgValue() >= _minStake, \"Send Ether amount equivalent to minimum stake\");\n        newThrift.contributorsRank[0] = payable(_msgSender());\n        newThrift.contributors[_msgSender()] = true;\n        newThrift.hasStaked[_msgSender()] = _msgValue();\n        nextThriftId++;\n        return true;\n    }\n\n    //  join a thrift with minimum stake deposit\n    function joinThrift(uint256 _thriftID) payable external thriftExists(_thriftID) thriftNotStarted(_thriftID) returns(bool) {\n        if(_isContributor(_thriftID, _msgSender())) {\n            return false;\n        }\n        require(!_hasStarted(_thriftID), \"Thrift already started\");\n        Thrift storage thrift = thrifts[_thriftID];\n        uint256 position = thrift.numParticipants;\n        thrift.numParticipants += 1;\n        require(_msgValue() >= thrift.minStake, \"Send Ether amount equivalent to minimum stake\");\n        thrift.contributorsRank[position] = payable(_msgSender());\n        thrift.hasStaked[_msgSender()] = _msgValue();\n        // check if maximum participants is reached\n        if(thrift.numParticipants < (thrift.maxParticipants)) {\n            return true;\n        }else if(thrift.numParticipants == (thrift.maxParticipants)) {  // start thrift once max participantis reached\n            thrift.start = true;\n            return true;\n        }else {                                                         // revert if max participants exceeded\n            revert(\"Max participants reached already\");\n        }\n    }\n\n    // adding contribution to a thrift round\n    function contributeToThrift(uint256 _thriftID) payable external thriftExists(_thriftID) returns(bool) {\n        require(_isContributor(_thriftID, _msgSender()), \"Address not a contributor\");\n        require(_hasStarted(_thriftID), \"Thrift contribution is yet to start\");\n        require(!_hasCompleted(_thriftID), \"Thrift has been completed\");\n        Thrift storage thrift = thrifts[_thriftID];\n        uint256 numParticipants = thrift.numParticipants;\n        uint256 curRound = thrift.curRound;\n        require(thrift.roundContributionAmount[curRound][_msgSender()] == 0, \"Cannot contribute twice to a round\");\n        require(_msgValue() > 0 && _msgValue() >= thrift.roundAmount, \"Ether sent must exceed zero and rount amount\");\n        // account for rouund period and close thrift if its been ellapsed\n        if(curRound == 0) {\n            bool periodEllapsed = _timeStamp() > thrift.startTime + thrift.roundPeriod;\n            if(periodEllapsed) {\n                // punish defaulters and close thrift\n                for(uint i=0; i<numParticipants; i++) {\n                    if(thrift.roundContributionAmount[curRound][thrift.contributorsRank[i]] > 0) {\n                        address recipientContrib = thrift.contributorsRank[i];\n                        uint256 amount = thrift.roundContributionAmount[i][recipientContrib] + thrift.minStake;\n                        _sendViaCall(recipientContrib, amount);\n                    }\n                }\n                thrift.completed = true;\n                return false;\n            }\n        }else {\n            bool periodEllapsed = _timeStamp() > thrift.roundCompletionTime[curRound-1] + thrift.roundPeriod;\n            if(periodEllapsed) {\n                // punish defaulters and close thrift\n                for(uint i=0; i<numParticipants; i++) {\n                    if(thrift.roundContributionAmount[curRound][thrift.contributorsRank[i]] > 0) {\n                        address recipientContrib = thrift.contributorsRank[i];\n                        uint256 amount = thrift.roundContributionAmount[i][recipientContrib] + thrift.minStake;\n                        _sendViaCall(recipientContrib, amount);\n                    }\n                }\n                thrift.completed = true;\n                return false;\n            }\n        }\n        thrift.roundContributionCount += 1;\n        thrift.roundContributionAmount[curRound][_msgSender()] = _msgValue();\n        \n        // last contribution sholud update relevant thrift state information and disburse funds\n        if(thrift.roundContributionCount == numParticipants) {\n            thrift.roundCompleted[curRound] = true;\n            thrift.roundCompletionTime[curRound] = _timeStamp();\n            // disburse funds to round collector and update round \n            address recipientContrib = thrift.contributorsRank[curRound];\n            _sendViaCall(recipientContrib, thrift.roundContributionAmount[curRound][recipientContrib]);\n            thrift.curRound += 1;\n        }\n        // thrift is completed\n        if(++curRound == numParticipants) {\n            thrift.completed = true;\n        }\n        return true;\n    }\n\n    // anyone can close thrift when \n    // 1. thrift is not yet completed and,\n    // 2. block timestamp has exceeded the deadline\n    function closeThrift(uint256 _thriftID) external returns(bool) {\n        Thrift storage thrift = thrifts[_thriftID];\n        bool completed = thrift.completed;\n        bool deadline = _timeStamp() > thrift.startTime + (thrift.roundPeriod * thrift.numParticipants);\n        require(!completed && deadline, \"Thrift already completed or deadline not exceeded\");\n        // check for defaulters and apply punishment\n        for(uint i=0; i<thrift.numParticipants; i++) {\n            uint256 contribAmount = thrift.roundContributionAmount[thrift.curRound][thrift.contributorsRank[i]];\n            if(contribAmount > 0) {\n                uint256 amount = contribAmount + thrift.minStake;\n                _sendViaCall(thrift.contributorsRank[i], amount);\n            }\n        }\n        thrift.completed = true;\n        return true;\n    }\n\n    // update penalty fee\n    function updatePenaltyFee(uint256 _newFees) external onlyAdmin() returns(bool) {\n        require(_newFees > 0, \"Penalty fee must exceed zero\");\n        PENALTY_FEE = _newFees;\n        return true;\n    }\n\n    // get the penalty fee\n    function getPenaltyFee() external view returns(uint256) {\n        return PENALTY_FEE;\n    }\n\n    // get thrift minStake\n    function getMinStake(uint256 _thriftID) thriftExists(_thriftID) external view returns(uint256) {\n        return thriftMinStake[_thriftID];\n    }\n\n    // external agent can check if a thrift exists in the contract\n    function thriftValid(uint256 _thriftID) external view returns(bool){\n        return _thriftID < nextThriftId;\n    }\n\n\n    // CONTRACT HELPERS\n    //\n    function _msgSender() internal view returns(address) {\n        return msg.sender;\n    }\n\n    function _msgValue() internal view returns(uint256) {\n        return msg.value;\n    }\n\n    function _timeStamp() internal view returns(uint256) {\n        return block.timestamp;\n    }\n\n    function _isContributor(uint256 _thriftID, address _contributor) internal view thriftExists(_thriftID) returns(bool) {\n        Thrift storage thrift = thrifts[_thriftID];\n        return thrift.contributors[_contributor];\n    }\n\n    function _hasStarted(uint256 _thriftID) internal view thriftExists(_thriftID) returns(bool) {\n        Thrift storage thrift = thrifts[_thriftID];\n        return thrift.start;\n    }\n\n    function _hasCompleted(uint256 _thriftID) internal view thriftExists(_thriftID) returns(bool) {\n        Thrift storage thrift = thrifts[_thriftID];\n        return thrift.completed;\n    }\n    \n\n    function _sendViaCall(address _to, uint256 amount) public payable {\n        require(!lock, \"re-rentrant calls not allowed\");\n        lock = true;\n        (bool sent,) = payable(_to).call{value: amount}(\"\");\n        lock = false;\n        require(sent, \"Failed to send Ether\");\n    }\n\n    // CONTRACT MODIFIERS\n    //\n    modifier onlyAdmin() {\n        require(_msgSender() == admin, \"Sender is not an admin\");\n        _;\n    }\n\n    modifier thriftExists(uint256 _thriftID) {\n        require(_thriftID < nextThriftId, \"Thrift not existence\");\n        _;\n    }\n\n    modifier thriftNotStarted(uint256 _thriftID) {\n        require(!thrifts[_thriftID].start, \"Thrift closed to new participants\");\n        _;\n    }\n\n    // prevent ether transfers for unknown contract call */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\n    fallback() payable external {\n        revert(\"Unknown contract call ETHER transfer rejected\");\n    }\n\n    // prevent forceful ETHER transfers on empty msg.data\n    receive() external payable {\n        revert(\"Forceful ETHER transfer rejected\");\n    }\n}",
  "sourcePath": "/home/nuel/oss/blockchain-developer-bootcamp-final-project/contracts/Thrift.sol",
  "compiler": {
    "name": "solc",
    "version": "0.8.1+commit.df193b15.Emscripten.clang"
  },
  "schemaVersion": "3.4.4",
  "updatedAt": "2022-02-02T08:16:24.465Z",
  "devdoc": {
    "kind": "dev",
    "methods": {},
    "version": 1
  },
  "userdoc": {
    "kind": "user",
    "methods": {},
    "version": 1
  }
}