{
  "contractName": "ThriftManager",
  "abi": [
    {
      "inputs": [],
      "stateMutability": "nonpayable",
      "type": "constructor"
    },
    {
      "stateMutability": "payable",
      "type": "fallback"
    },
    {
      "inputs": [],
      "name": "PENALTY_FEE",
      "outputs": [
        {
          "internalType": "uint256",
          "name": "",
          "type": "uint256"
        }
      ],
      "stateMutability": "view",
      "type": "function"
    },
    {
      "stateMutability": "payable",
      "type": "receive"
    },
    {
      "inputs": [
        {
          "internalType": "uint256",
          "name": "_maxParticipants",
          "type": "uint256"
        },
        {
          "internalType": "uint256",
          "name": "_roundAmount",
          "type": "uint256"
        },
        {
          "internalType": "uint256",
          "name": "_roundPeriod",
          "type": "uint256"
        }
      ],
      "name": "createThrift",
      "outputs": [
        {
          "internalType": "bool",
          "name": "",
          "type": "bool"
        }
      ],
      "stateMutability": "payable",
      "type": "function"
    },
    {
      "inputs": [
        {
          "internalType": "uint256",
          "name": "_thriftID",
          "type": "uint256"
        }
      ],
      "name": "joinThrift",
      "outputs": [
        {
          "internalType": "bool",
          "name": "",
          "type": "bool"
        }
      ],
      "stateMutability": "payable",
      "type": "function"
    },
    {
      "inputs": [
        {
          "internalType": "uint256",
          "name": "_thriftID",
          "type": "uint256"
        }
      ],
      "name": "contributeToThrift",
      "outputs": [
        {
          "internalType": "bool",
          "name": "",
          "type": "bool"
        }
      ],
      "stateMutability": "payable",
      "type": "function"
    },
    {
      "inputs": [
        {
          "internalType": "uint256",
          "name": "_thriftID",
          "type": "uint256"
        }
      ],
      "name": "closeThrift",
      "outputs": [
        {
          "internalType": "bool",
          "name": "",
          "type": "bool"
        }
      ],
      "stateMutability": "nonpayable",
      "type": "function"
    },
    {
      "inputs": [
        {
          "internalType": "uint256",
          "name": "_newFees",
          "type": "uint256"
        }
      ],
      "name": "updatePenaltyFee",
      "outputs": [
        {
          "internalType": "bool",
          "name": "",
          "type": "bool"
        }
      ],
      "stateMutability": "nonpayable",
      "type": "function"
    },
    {
      "inputs": [],
      "name": "getPenaltyFee",
      "outputs": [
        {
          "internalType": "uint256",
          "name": "",
          "type": "uint256"
        }
      ],
      "stateMutability": "view",
      "type": "function"
    },
    {
      "inputs": [
        {
          "internalType": "uint256",
          "name": "_thriftID",
          "type": "uint256"
        }
      ],
      "name": "thriftValid",
      "outputs": [
        {
          "internalType": "bool",
          "name": "",
          "type": "bool"
        }
      ],
      "stateMutability": "view",
      "type": "function"
    },
    {
      "inputs": [
        {
          "internalType": "address",
          "name": "_to",
          "type": "address"
        },
        {
          "internalType": "uint256",
          "name": "amount",
          "type": "uint256"
        }
      ],
      "name": "_sendViaCall",
      "outputs": [],
      "stateMutability": "payable",
      "type": "function"
    }
  ],
  "bytecode": "0x608060405266038d7ea4c6800060025534801561001b57600080fd5b5061002a61006e60201b60201c565b6000806101000a81548173ffffffffffffffffffffffffffffffffffffffff021916908373ffffffffffffffffffffffffffffffffffffffff160217905550610076565b600033905090565b61227b806100856000396000f3fe60806040526004361061008a5760003560e01c80639412c7dd116100595780639412c7dd146101cd578063a673e31a146101fd578063c9b1d38b14610228578063db4de45e14610244578063f1d3831e14610281576100ca565b80631ba8be6d1461010557806346d32b42146101355780637755061014610172578063928c7d801461019d576100ca565b366100ca576040517f08c379a00000000000000000000000000000000000000000000000000000000081526004016100c1906119b8565b60405180910390fd5b6040517f08c379a00000000000000000000000000000000000000000000000000000000081526004016100fc90611b38565b60405180910390fd5b61011f600480360381019061011a919061161f565b6102be565b60405161012c919061195d565b60405180910390f35b34801561014157600080fd5b5061015c600480360381019061015791906115f6565b6105dd565b604051610169919061195d565b60405180910390f35b34801561017e57600080fd5b506101876107c0565b6040516101949190611bd8565b60405180910390f35b6101b760048036038101906101b291906115f6565b6107ca565b6040516101c4919061195d565b60405180910390f35b6101e760048036038101906101e291906115f6565b610f30565b6040516101f4919061195d565b60405180910390f35b34801561020957600080fd5b50610212611212565b60405161021f9190611bd8565b60405180910390f35b610242600480360381019061023d91906115ba565b611218565b005b34801561025057600080fd5b5061026b600480360381019061026691906115f6565b61134f565b604051610278919061195d565b60405180910390f35b34801561028d57600080fd5b506102a860048036038101906102a391906115f6565b61135d565b6040516102b5919061195d565b60405180910390f35b600080841180156102d05750600a8411155b61030f576040517f08c379a000000000000000000000000000000000000000000000000000000000815260040161030690611a18565b60405180910390fd5b60008311610352576040517f08c379a000000000000000000000000000000000000000000000000000000000815260040161034990611b18565b60405180910390fd5b60008211610395576040517f08c379a000000000000000000000000000000000000000000000000000000000815260040161038c90611a58565b60405180910390fd5b600060046000600154815260200190815260200160002090506001548160000181905550848160010181905550600181600201819055508381600401819055506103dd611448565b8160090160006101000a81548173ffffffffffffffffffffffffffffffffffffffff021916908373ffffffffffffffffffffffffffffffffffffffff160217905550828160070181905550610430611450565b8160080181905550600060025485876104499190611c65565b6104539190611c0f565b905080826003018190555080610467611458565b10156104a8576040517f08c379a000000000000000000000000000000000000000000000000000000000815260040161049f90611b78565b60405180910390fd5b6104b0611448565b82600a01600080815260200190815260200160002060006101000a81548173ffffffffffffffffffffffffffffffffffffffff021916908373ffffffffffffffffffffffffffffffffffffffff160217905550600182600b016000610513611448565b73ffffffffffffffffffffffffffffffffffffffff1673ffffffffffffffffffffffffffffffffffffffff16815260200190815260200160002060006101000a81548160ff02191690831515021790555061056c611458565b82600c01600061057a611448565b73ffffffffffffffffffffffffffffffffffffffff1673ffffffffffffffffffffffffffffffffffffffff16815260200190815260200160002081905550600160008154809291906105cb90611d3b565b91905055506001925050509392505050565b60008060046000848152602001908152602001600020905060008160090160159054906101000a900460ff1690506000826002015483600701546106219190611c65565b83600801546106309190611c0f565b610638611450565b119050811580156106465750805b610685576040517f08c379a000000000000000000000000000000000000000000000000000000000815260040161067c90611b58565b60405180910390fd5b60005b836002015481101561079657600084600f01600086600501548152602001908152602001600020600086600a01600085815260200190815260200160002060009054906101000a900473ffffffffffffffffffffffffffffffffffffffff1673ffffffffffffffffffffffffffffffffffffffff1673ffffffffffffffffffffffffffffffffffffffff168152602001908152602001600020549050600081111561078257600085600301548261073f9190611c0f565b905061078086600a01600085815260200190815260200160002060009054906101000a900473ffffffffffffffffffffffffffffffffffffffff1682611218565b505b50808061078e90611d3b565b915050610688565b5060018360090160156101000a81548160ff02191690831515021790555060019350505050919050565b6000600254905090565b6000816001548110610811576040517f08c379a000000000000000000000000000000000000000000000000000000000815260040161080890611a38565b60405180910390fd5b6108228361081d611448565b611460565b610861576040517f08c379a000000000000000000000000000000000000000000000000000000000815260040161085890611b98565b60405180910390fd5b61086a83611517565b6108a9576040517f08c379a00000000000000000000000000000000000000000000000000000000081526004016108a0906119f8565b60405180910390fd5b6000600460008581526020019081526020016000209050600081600201549050600082600501549050600083600f01600083815260200190815260200160002060006108f3611448565b73ffffffffffffffffffffffffffffffffffffffff1673ffffffffffffffffffffffffffffffffffffffff168152602001908152602001600020541461096e576040517f08c379a000000000000000000000000000000000000000000000000000000000815260040161096590611ab8565b60405180910390fd5b6000610978611458565b1180156109905750826004015461098d611458565b10155b6109cf576040517f08c379a00000000000000000000000000000000000000000000000000000000081526004016109c690611998565b60405180910390fd5b6000811415610b8b576000836007015484600801546109ee9190611c0f565b6109f6611450565b1190508015610b855760005b83811015610b5a57600085600f016000858152602001908152602001600020600087600a01600085815260200190815260200160002060009054906101000a900473ffffffffffffffffffffffffffffffffffffffff1673ffffffffffffffffffffffffffffffffffffffff1673ffffffffffffffffffffffffffffffffffffffff168152602001908152602001600020541115610b4757600085600a01600083815260200190815260200160002060009054906101000a900473ffffffffffffffffffffffffffffffffffffffff1690506000866003015487600f01600085815260200190815260200160002060008473ffffffffffffffffffffffffffffffffffffffff1673ffffffffffffffffffffffffffffffffffffffff16815260200190815260200160002054610b389190611c0f565b9050610b448282611218565b50505b8080610b5290611d3b565b915050610a02565b5060018460090160156101000a81548160ff0219169083151502179055506000955050505050610f2a565b50610d57565b6000836007015484600d016000600185610ba59190611cbf565b815260200190815260200160002054610bbe9190611c0f565b610bc6611450565b1190508015610d555760005b83811015610d2a57600085600f016000858152602001908152602001600020600087600a01600085815260200190815260200160002060009054906101000a900473ffffffffffffffffffffffffffffffffffffffff1673ffffffffffffffffffffffffffffffffffffffff1673ffffffffffffffffffffffffffffffffffffffff168152602001908152602001600020541115610d1757600085600a01600083815260200190815260200160002060009054906101000a900473ffffffffffffffffffffffffffffffffffffffff1690506000866003015487600f01600085815260200190815260200160002060008473ffffffffffffffffffffffffffffffffffffffff1673ffffffffffffffffffffffffffffffffffffffff16815260200190815260200160002054610d089190611c0f565b9050610d148282611218565b50505b8080610d2290611d3b565b915050610bd2565b5060018460090160156101000a81548160ff0219169083151502179055506000955050505050610f2a565b505b6001836006016000828254610d6c9190611c0f565b92505081905550610d7b611458565b83600f0160008381526020019081526020016000206000610d9a611448565b73ffffffffffffffffffffffffffffffffffffffff1673ffffffffffffffffffffffffffffffffffffffff168152602001908152602001600020819055508183600601541415610ef057600183600e01600083815260200190815260200160002060006101000a81548160ff021916908315150217905550610e1a611450565b83600d0160008381526020019081526020016000208190555081811015610eef57600083600a01600083815260200190815260200160002060009054906101000a900473ffffffffffffffffffffffffffffffffffffffff169050610ed18185600f01600085815260200190815260200160002060008473ffffffffffffffffffffffffffffffffffffffff1673ffffffffffffffffffffffffffffffffffffffff16815260200190815260200160002054611218565b6001846005016000828254610ee69190611c0f565b92505081905550505b5b8181610efb90611d3b565b9150811415610f225760018360090160156101000a81548160ff0219169083151502179055505b600194505050505b50919050565b6000816001548110610f77576040517f08c379a0000000000000000000000000000000000000000000000000000000008152600401610f6e90611a38565b60405180910390fd5b826004600082815260200190815260200160002060090160149054906101000a900460ff1615610fdc576040517f08c379a0000000000000000000000000000000000000000000000000000000008152600401610fd390611af8565b60405180910390fd5b610fed84610fe8611448565b611460565b15610ffb576000925061120b565b61100484611517565b15611044576040517f08c379a000000000000000000000000000000000000000000000000000000000815260040161103b90611ad8565b60405180910390fd5b600060046000868152602001908152602001600020905060008160020154905060018260020160008282546110799190611c0f565b92505081905550816003015461108d611458565b10156110ce576040517f08c379a00000000000000000000000000000000000000000000000000000000081526004016110c590611b78565b60405180910390fd5b6110d6611448565b82600a01600083815260200190815260200160002060006101000a81548173ffffffffffffffffffffffffffffffffffffffff021916908373ffffffffffffffffffffffffffffffffffffffff160217905550611131611458565b82600c01600061113f611448565b73ffffffffffffffffffffffffffffffffffffffff1673ffffffffffffffffffffffffffffffffffffffff168152602001908152602001600020819055508160010154826002015410156111985760019450505061120b565b8160010154826002015414156111d05760018260090160146101000a81548160ff02191690831515021790555060019450505061120b565b6040517f08c379a000000000000000000000000000000000000000000000000000000000815260040161120290611a98565b60405180910390fd5b5050919050565b60025481565b600360009054906101000a900460ff1615611268576040517f08c379a000000000000000000000000000000000000000000000000000000000815260040161125f90611978565b60405180910390fd5b6001600360006101000a81548160ff02191690831515021790555060008273ffffffffffffffffffffffffffffffffffffffff16826040516112a990611948565b60006040518083038185875af1925050503d80600081146112e6576040519150601f19603f3d011682016040523d82523d6000602084013e6112eb565b606091505b505090506000600360006101000a81548160ff0219169083151502179055508061134a576040517f08c379a0000000000000000000000000000000000000000000000000000000008152600401611341906119d8565b60405180910390fd5b505050565b600060015482109050919050565b60008060009054906101000a900473ffffffffffffffffffffffffffffffffffffffff1673ffffffffffffffffffffffffffffffffffffffff1661139f611448565b73ffffffffffffffffffffffffffffffffffffffff16146113f5576040517f08c379a00000000000000000000000000000000000000000000000000000000081526004016113ec90611bb8565b60405180910390fd5b60008211611438576040517f08c379a000000000000000000000000000000000000000000000000000000000815260040161142f90611a78565b60405180910390fd5b8160028190555060019050919050565b600033905090565b600042905090565b600034905090565b60008260015481106114a7576040517f08c379a000000000000000000000000000000000000000000000000000000000815260040161149e90611a38565b60405180910390fd5b600060046000868152602001908152602001600020905080600b0160008573ffffffffffffffffffffffffffffffffffffffff1673ffffffffffffffffffffffffffffffffffffffff16815260200190815260200160002060009054906101000a900460ff169250505092915050565b600081600154811061155e576040517f08c379a000000000000000000000000000000000000000000000000000000000815260040161155590611a38565b60405180910390fd5b60006004600085815260200190815260200160002090508060090160149054906101000a900460ff1692505050919050565b60008135905061159f81612217565b92915050565b6000813590506115b48161222e565b92915050565b600080604083850312156115cd57600080fd5b60006115db85828601611590565b92505060206115ec858286016115a5565b9150509250929050565b60006020828403121561160857600080fd5b6000611616848285016115a5565b91505092915050565b60008060006060848603121561163457600080fd5b6000611642868287016115a5565b9350506020611653868287016115a5565b9250506040611664868287016115a5565b9150509250925092565b61167781611d05565b82525050565b600061168a601d83611bfe565b915061169582611db3565b602082019050919050565b60006116ad602c83611bfe565b91506116b882611ddc565b604082019050919050565b60006116d0602083611bfe565b91506116db82611e2b565b602082019050919050565b60006116f3601483611bfe565b91506116fe82611e54565b602082019050919050565b6000611716602383611bfe565b915061172182611e7d565b604082019050919050565b6000611739602483611bfe565b915061174482611ecc565b604082019050919050565b600061175c601483611bfe565b915061176782611f1b565b602082019050919050565b600061177f601d83611bfe565b915061178a82611f44565b602082019050919050565b60006117a2601c83611bfe565b91506117ad82611f6d565b602082019050919050565b60006117c5602083611bfe565b91506117d082611f96565b602082019050919050565b60006117e8602283611bfe565b91506117f382611fbf565b604082019050919050565b600061180b601683611bfe565b91506118168261200e565b602082019050919050565b600061182e602183611bfe565b915061183982612037565b604082019050919050565b6000611851602383611bfe565b915061185c82612086565b604082019050919050565b6000611874600083611bf3565b915061187f826120d5565b600082019050919050565b6000611897602d83611bfe565b91506118a2826120d8565b604082019050919050565b60006118ba603183611bfe565b91506118c582612127565b604082019050919050565b60006118dd602d83611bfe565b91506118e882612176565b604082019050919050565b6000611900601983611bfe565b915061190b826121c5565b602082019050919050565b6000611923601683611bfe565b915061192e826121ee565b602082019050919050565b61194281611d31565b82525050565b600061195382611867565b9150819050919050565b6000602082019050611972600083018461166e565b92915050565b600060208201905081810360008301526119918161167d565b9050919050565b600060208201905081810360008301526119b1816116a0565b9050919050565b600060208201905081810360008301526119d1816116c3565b9050919050565b600060208201905081810360008301526119f1816116e6565b9050919050565b60006020820190508181036000830152611a1181611709565b9050919050565b60006020820190508181036000830152611a318161172c565b9050919050565b60006020820190508181036000830152611a518161174f565b9050919050565b60006020820190508181036000830152611a7181611772565b9050919050565b60006020820190508181036000830152611a9181611795565b9050919050565b60006020820190508181036000830152611ab1816117b8565b9050919050565b60006020820190508181036000830152611ad1816117db565b9050919050565b60006020820190508181036000830152611af1816117fe565b9050919050565b60006020820190508181036000830152611b1181611821565b9050919050565b60006020820190508181036000830152611b3181611844565b9050919050565b60006020820190508181036000830152611b518161188a565b9050919050565b60006020820190508181036000830152611b71816118ad565b9050919050565b60006020820190508181036000830152611b91816118d0565b9050919050565b60006020820190508181036000830152611bb1816118f3565b9050919050565b60006020820190508181036000830152611bd181611916565b9050919050565b6000602082019050611bed6000830184611939565b92915050565b600081905092915050565b600082825260208201905092915050565b6000611c1a82611d31565b9150611c2583611d31565b9250827fffffffffffffffffffffffffffffffffffffffffffffffffffffffffffffffff03821115611c5a57611c59611d84565b5b828201905092915050565b6000611c7082611d31565b9150611c7b83611d31565b9250817fffffffffffffffffffffffffffffffffffffffffffffffffffffffffffffffff0483118215151615611cb457611cb3611d84565b5b828202905092915050565b6000611cca82611d31565b9150611cd583611d31565b925082821015611ce857611ce7611d84565b5b828203905092915050565b6000611cfe82611d11565b9050919050565b60008115159050919050565b600073ffffffffffffffffffffffffffffffffffffffff82169050919050565b6000819050919050565b6000611d4682611d31565b91507fffffffffffffffffffffffffffffffffffffffffffffffffffffffffffffffff821415611d7957611d78611d84565b5b600182019050919050565b7f4e487b7100000000000000000000000000000000000000000000000000000000600052601160045260246000fd5b7f72652d72656e7472616e742063616c6c73206e6f7420616c6c6f776564000000600082015250565b7f45746865722073656e74206d75737420657863656564207a65726f20616e642060008201527f726f756e7420616d6f756e740000000000000000000000000000000000000000602082015250565b7f466f72636566756c204554484552207472616e736665722072656a6563746564600082015250565b7f4661696c656420746f2073656e64204574686572000000000000000000000000600082015250565b7f54687269667420636f6e747269627574696f6e2069732079657420746f20737460008201527f6172740000000000000000000000000000000000000000000000000000000000602082015250565b7f4f6e6c79206f6e6520746f2074656e207061727469636970616e747320616c6c60008201527f6f77656400000000000000000000000000000000000000000000000000000000602082015250565b7f546872696674206e6f74206578697374656e6365000000000000000000000000600082015250565b7f526f756e6420706572696f64206d75737420657863656564207a65726f000000600082015250565b7f50656e616c747920666565206d75737420657863656564207a65726f00000000600082015250565b7f4d6178207061727469636970616e7473207265616368656420616c7265616479600082015250565b7f43616e6e6f7420636f6e7472696275746520747769636520746f206120726f7560008201527f6e64000000000000000000000000000000000000000000000000000000000000602082015250565b7f54687269667420616c7265616479207374617274656400000000000000000000600082015250565b7f54687269667420636c6f73656420746f206e6577207061727469636970616e7460008201527f7300000000000000000000000000000000000000000000000000000000000000602082015250565b7f526f756e6420636f6e747269627574696f6e206d75737420657863656564207a60008201527f65726f0000000000000000000000000000000000000000000000000000000000602082015250565b50565b7f556e6b6e6f776e20636f6e74726163742063616c6c204554484552207472616e60008201527f736665722072656a656374656400000000000000000000000000000000000000602082015250565b7f54687269667420616c726561647920636f6d706c65746564206f72206465616460008201527f6c696e65206e6f74206578636565646564000000000000000000000000000000602082015250565b7f53656e6420457468657220616d6f756e74206571756976616c656e7420746f2060008201527f6d696e696d756d207374616b6500000000000000000000000000000000000000602082015250565b7f41646472657373206e6f74206120636f6e7472696275746f7200000000000000600082015250565b7f53656e646572206973206e6f7420616e2061646d696e00000000000000000000600082015250565b61222081611cf3565b811461222b57600080fd5b50565b61223781611d31565b811461224257600080fd5b5056fea2646970667358221220f9494ac8026fd676d3e405ae12f832ff5b8cb3f87a00b7ec85bb365d99d7dc2964736f6c63430008010033",
  "immutableReferences": {},
  "source": "// SPDX-License-Identifier: MIT\npragma solidity ^0.8.1;\n\ncontract ThriftManager {\n    // address with priviledge to adjust contract parameters\n    address admin;\n\n    // tracks the thrift count explicitly and ID implicitly\n    uint256 nextThriftId;\n\n    // fee for defaulting thrift participants is sinked to the contract account\n    uint256 public PENALTY_FEE = 0.001 ether;\n\n    // lock to guard reentrancy\n    bool lock;\n\n    // constructor\n    constructor() {\n        admin = _msgSender();\n    }\n\n    // defines the thrift struct\n    struct Thrift {\n        uint256 id;\n        uint256 maxParticipants;\n        uint256 numParticipants;            // number of participants in the thrift\n        uint256 minStake;\n        uint256 roundAmount;                // per participant contribution amount in a round\n        uint256 curRound;                   // tracks the current round count\n        uint256 roundContributionCount;     // track participants count that has contributed for every round\n        uint256 roundPeriod;                // time allowed for every round\n        uint startTime;                     // tracks time when thrift kickstarts\n        address creator;                    // address that started the thrift\n        bool start;                         // starts when max participants is reached\n        bool completed;                     // completed when all participants funds has been disbursed or a paricipant defaults oncontribution\n        mapping(uint256 => address payable) contributorsRank;\n        mapping(address => bool) contributors;\n        mapping(address => uint256) hasStaked;\n        mapping(uint256 => uint256) roundCompletionTime;                                // tracks when rounds are completed\n        mapping(uint256 => bool) roundCompleted;                                        // track round completion incrementally\n        mapping(uint256 => mapping(address => uint256)) roundContributionAmount;        // track  participants contribution for a given round\n    }\n\n    mapping(uint256 => Thrift) thrifts;\n    mapping(uint256 => uint256) thriftBalances;                                         // track funds in any given thrift\n\n    // start a new thrift\n    function createThrift(uint256 _maxParticipants, uint256 _roundAmount,uint256 _roundPeriod) payable external returns(bool) {\n        require(_maxParticipants > 0 && _maxParticipants <= 10, \"Only one to ten participants allowed\");\n        require(_roundAmount > 0, \"Round contribution must exceed zero\");\n        require(_roundPeriod > 0, \"Round period must exceed zero\");\n        Thrift storage newThrift = thrifts[nextThriftId];\n        newThrift.id = nextThriftId;\n        newThrift.maxParticipants = _maxParticipants;\n        newThrift.numParticipants = 1;\n        newThrift.roundAmount = _roundAmount;\n        newThrift.creator = _msgSender();\n        newThrift.roundPeriod = _roundPeriod;\n        newThrift.startTime = _timeStamp();\n        // calculate the minstake = maxParticipants * roundAmount\n        uint256 _minStake = (_maxParticipants * _roundAmount) + PENALTY_FEE;\n        newThrift.minStake = _minStake;\n        // creator should deposit minimum stake\n        require(_msgValue() >= _minStake, \"Send Ether amount equivalent to minimum stake\");\n        newThrift.contributorsRank[0] = payable(_msgSender());\n        newThrift.contributors[_msgSender()] = true;\n        newThrift.hasStaked[_msgSender()] = _msgValue();\n        nextThriftId++;\n        return true;\n    }\n\n    //  join a thrift with minimum stake deposit\n    // ** check that is not contributor lready\n    function joinThrift(uint256 _thriftID) payable external thriftExists(_thriftID) thriftNotStarted(_thriftID) returns(bool) {\n        if(_isContributor(_thriftID, _msgSender())) {\n            return false;\n        }\n        require(!_hasStarted(_thriftID), \"Thrift already started\");\n        Thrift storage thrift = thrifts[_thriftID];\n        uint256 position = thrift.numParticipants;\n        thrift.numParticipants += 1;\n        require(_msgValue() >= thrift.minStake, \"Send Ether amount equivalent to minimum stake\");\n        thrift.contributorsRank[position] = payable(_msgSender());\n        thrift.hasStaked[_msgSender()] = _msgValue();\n        // check if maximum participants is reached\n        if(thrift.numParticipants < (thrift.maxParticipants)) {\n            return true;\n        }else if(thrift.numParticipants == (thrift.maxParticipants)) {  // start thrift once max participantis reached\n            thrift.start = true;\n            return true;\n        }else {                                                         // revert if max participants exceeded\n            revert(\"Max participants reached already\");\n        }\n    }\n\n    // adding contribution to a thrift round\n    function contributeToThrift(uint256 _thriftID) payable external thriftExists(_thriftID) returns(bool) {\n        require(_isContributor(_thriftID, _msgSender()), \"Address not a contributor\");\n        require(_hasStarted(_thriftID), \"Thrift contribution is yet to start\");\n        Thrift storage thrift = thrifts[_thriftID];\n        uint256 numParticipants = thrift.numParticipants;\n        uint256 curRound = thrift.curRound;\n        require(thrift.roundContributionAmount[curRound][_msgSender()] == 0, \"Cannot contribute twice to a round\");\n        require(_msgValue() > 0 && _msgValue() >= thrift.roundAmount, \"Ether sent must exceed zero and rount amount\");\n        // account for rouund period and close thrift if its been ellapsed\n        if(curRound == 0) {\n            bool periodEllapsed = _timeStamp() > thrift.startTime + thrift.roundPeriod;\n            if(periodEllapsed) {\n                // punish defaulters and close thrift\n                for(uint i=0; i<numParticipants; i++) {\n                    if(thrift.roundContributionAmount[curRound][thrift.contributorsRank[i]] > 0) {\n                        address recipientContrib = thrift.contributorsRank[i];\n                        uint256 amount = thrift.roundContributionAmount[i][recipientContrib] + thrift.minStake;\n                        _sendViaCall(recipientContrib, amount);\n                    }\n                }\n                thrift.completed = true;\n                return false;\n            }\n        }else {\n            bool periodEllapsed = _timeStamp() > thrift.roundCompletionTime[curRound-1] + thrift.roundPeriod;\n            if(periodEllapsed) {\n                // punish defaulters and close thrift\n                for(uint i=0; i<numParticipants; i++) {\n                    if(thrift.roundContributionAmount[curRound][thrift.contributorsRank[i]] > 0) {\n                        address recipientContrib = thrift.contributorsRank[i];\n                        uint256 amount = thrift.roundContributionAmount[i][recipientContrib] + thrift.minStake;\n                        _sendViaCall(recipientContrib, amount);\n                    }\n                }\n                thrift.completed = true;\n                return false;\n            }\n        }\n        thrift.roundContributionCount += 1;\n        thrift.roundContributionAmount[curRound][_msgSender()] = _msgValue();\n        \n        // last contribution shold update relevant thrift state information and disburse funds\n        if(thrift.roundContributionCount == numParticipants) {\n            thrift.roundCompleted[curRound] = true;\n            thrift.roundCompletionTime[curRound] = _timeStamp();\n            // all rounds yet to complete\n            if(curRound < numParticipants) {\n                // disburse funds to round collector and update round \n                address recipientContrib = thrift.contributorsRank[curRound];\n                _sendViaCall(recipientContrib, thrift.roundContributionAmount[curRound][recipientContrib]);\n                thrift.curRound += 1;\n            }\n        }\n        // thrift is completed\n        if(++curRound == numParticipants) {\n            thrift.completed = true;\n        }\n        return true;\n    }\n\n    // anyone can close thrift when \n    // 1. thrift is not yet completed and,\n    // 2. block timestamp has exceeded the deadline\n    function closeThrift(uint256 _thriftID) external returns(bool) {\n        Thrift storage thrift = thrifts[_thriftID];\n        bool completed = thrift.completed;\n        bool deadline = _timeStamp() > thrift.startTime + (thrift.roundPeriod * thrift.numParticipants);\n        require(!completed && deadline, \"Thrift already completed or deadline not exceeded\");\n        // check for defaulters and apply punishment\n        for(uint i=0; i<thrift.numParticipants; i++) {\n            uint256 contribAmount = thrift.roundContributionAmount[thrift.curRound][thrift.contributorsRank[i]];\n            if(contribAmount > 0) {\n                uint256 amount = contribAmount + thrift.minStake;\n                _sendViaCall(thrift.contributorsRank[i], amount);\n            }\n        }\n        thrift.completed = true;\n        return true;\n    }\n\n    // update penalty fee\n    function updatePenaltyFee(uint256 _newFees) external onlyAdmin() returns(bool) {\n        require(_newFees > 0, \"Penalty fee must exceed zero\");\n        PENALTY_FEE = _newFees;\n        return true;\n    }\n\n    // get the penalty fee\n    function getPenaltyFee() external view returns(uint256) {\n        return PENALTY_FEE;\n    }\n\n    // external agent can check if a thrift exists in the contract\n    function thriftValid(uint256 _thriftID) external view returns(bool){\n        return _thriftID < nextThriftId;\n    }\n\n\n    // HELPERS\n    //\n    function _msgSender() internal view returns(address) {\n        return msg.sender;\n    }\n\n    function _msgValue() internal view returns(uint256) {\n        return msg.value;\n    }\n\n    function _timeStamp() internal view returns(uint256) {\n        return block.timestamp;\n    }\n\n    function _isContributor(uint256 _thriftID, address _contributor) internal view thriftExists(_thriftID) returns(bool) {\n        Thrift storage thrift = thrifts[_thriftID];\n        return thrift.contributors[_contributor];\n    }\n\n    function _hasStarted(uint256 _thriftID) internal view thriftExists(_thriftID) returns(bool) {\n        Thrift storage thrift = thrifts[_thriftID];\n        return thrift.start;\n    }\n\n    function _sendViaCall(address _to, uint256 amount) public payable {\n        // Call returns a boolean value indicating success or failure.\n        // This is the current recommended method to use.\n        require(!lock, \"re-rentrant calls not allowed\");\n        lock = true;\n        (bool sent,) = payable(_to).call{value: amount}(\"\");\n        lock = false;\n        require(sent, \"Failed to send Ether\");\n    }\n\n    // MODIFIERS\n    //\n    modifier onlyAdmin() {\n        require(_msgSender() == admin, \"Sender is not an admin\");\n        _;\n    }\n\n    modifier thriftExists(uint256 _thriftID) {\n        require(_thriftID < nextThriftId, \"Thrift not existence\");\n        _;\n    }\n\n    modifier thriftNotStarted(uint256 _thriftID) {\n        require(!thrifts[_thriftID].start, \"Thrift closed to new participants\");\n        _;\n    }\n\n    // prevent ether transfers for unknown contract call */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\n    fallback() payable external {\n        revert(\"Unknown contract call ETHER transfer rejected\");\n    }\n\n    // prevent forceful ETHER transfers on empty msg.data\n    receive() external payable {\n        revert(\"Forceful ETHER transfer rejected\");\n    }\n}",
  "sourcePath": "/home/nuel/oss/blockchain-developer-bootcamp-final-project/contracts/Thrift.sol",
  "compiler": {
    "name": "solc",
    "version": "0.8.1+commit.df193b15.Emscripten.clang"
  },
  "schemaVersion": "3.4.4",
  "updatedAt": "2022-02-02T07:38:56.003Z",
  "devdoc": {
    "kind": "dev",
    "methods": {},
    "version": 1
  },
  "userdoc": {
    "kind": "user",
    "methods": {},
    "version": 1
  }
}