{
  "contractName": "ThriftManager",
  "abi": [
    {
      "inputs": [],
      "stateMutability": "nonpayable",
      "type": "constructor"
    },
    {
      "stateMutability": "payable",
      "type": "fallback"
    },
    {
      "inputs": [],
      "name": "PENALTY_FEE",
      "outputs": [
        {
          "internalType": "uint256",
          "name": "",
          "type": "uint256"
        }
      ],
      "stateMutability": "view",
      "type": "function"
    },
    {
      "stateMutability": "payable",
      "type": "receive"
    },
    {
      "inputs": [
        {
          "internalType": "uint256",
          "name": "_maxParticipants",
          "type": "uint256"
        },
        {
          "internalType": "uint256",
          "name": "_roundAmount",
          "type": "uint256"
        },
        {
          "internalType": "uint256",
          "name": "_roundPeriod",
          "type": "uint256"
        }
      ],
      "name": "createThrift",
      "outputs": [
        {
          "internalType": "bool",
          "name": "",
          "type": "bool"
        }
      ],
      "stateMutability": "payable",
      "type": "function"
    },
    {
      "inputs": [
        {
          "internalType": "uint256",
          "name": "_thriftID",
          "type": "uint256"
        }
      ],
      "name": "joinThrift",
      "outputs": [
        {
          "internalType": "bool",
          "name": "",
          "type": "bool"
        }
      ],
      "stateMutability": "payable",
      "type": "function"
    },
    {
      "inputs": [
        {
          "internalType": "uint256",
          "name": "_thriftID",
          "type": "uint256"
        }
      ],
      "name": "contributeToThrift",
      "outputs": [
        {
          "internalType": "bool",
          "name": "",
          "type": "bool"
        }
      ],
      "stateMutability": "payable",
      "type": "function"
    },
    {
      "inputs": [
        {
          "internalType": "uint256",
          "name": "_thriftID",
          "type": "uint256"
        }
      ],
      "name": "closeThrift",
      "outputs": [
        {
          "internalType": "bool",
          "name": "",
          "type": "bool"
        }
      ],
      "stateMutability": "nonpayable",
      "type": "function"
    },
    {
      "inputs": [
        {
          "internalType": "uint256",
          "name": "_newFees",
          "type": "uint256"
        }
      ],
      "name": "updatePenaltyFee",
      "outputs": [
        {
          "internalType": "bool",
          "name": "",
          "type": "bool"
        }
      ],
      "stateMutability": "nonpayable",
      "type": "function"
    },
    {
      "inputs": [],
      "name": "getPenaltyFee",
      "outputs": [
        {
          "internalType": "uint256",
          "name": "",
          "type": "uint256"
        }
      ],
      "stateMutability": "view",
      "type": "function"
    },
    {
      "inputs": [
        {
          "internalType": "uint256",
          "name": "_thriftID",
          "type": "uint256"
        }
      ],
      "name": "thriftValid",
      "outputs": [
        {
          "internalType": "bool",
          "name": "",
          "type": "bool"
        }
      ],
      "stateMutability": "view",
      "type": "function"
    },
    {
      "inputs": [
        {
          "internalType": "address",
          "name": "_to",
          "type": "address"
        },
        {
          "internalType": "uint256",
          "name": "amount",
          "type": "uint256"
        }
      ],
      "name": "_sendViaCall",
      "outputs": [],
      "stateMutability": "payable",
      "type": "function"
    }
  ],
  "bytecode": "0x608060405266038d7ea4c6800060025534801561001b57600080fd5b5061002a61006e60201b60201c565b6000806101000a81548173ffffffffffffffffffffffffffffffffffffffff021916908373ffffffffffffffffffffffffffffffffffffffff160217905550610076565b600033905090565b6123a0806100856000396000f3fe60806040526004361061008a5760003560e01c80639412c7dd116100595780639412c7dd146101cd578063a673e31a146101fd578063c9b1d38b14610228578063db4de45e14610244578063f1d3831e14610281576100ca565b80631ba8be6d1461010557806346d32b42146101355780637755061014610172578063928c7d801461019d576100ca565b366100ca576040517f08c379a00000000000000000000000000000000000000000000000000000000081526004016100c190611a94565b60405180910390fd5b6040517f08c379a00000000000000000000000000000000000000000000000000000000081526004016100fc90611c34565b60405180910390fd5b61011f600480360381019061011a91906116d8565b6102be565b60405161012c9190611a39565b60405180910390f35b34801561014157600080fd5b5061015c600480360381019061015791906116af565b6105dd565b6040516101699190611a39565b60405180910390f35b34801561017e57600080fd5b506101876107c0565b6040516101949190611cd4565b60405180910390f35b6101b760048036038101906101b291906116af565b6107ca565b6040516101c49190611a39565b60405180910390f35b6101e760048036038101906101e291906116af565b610f70565b6040516101f49190611a39565b60405180910390f35b34801561020957600080fd5b50610212611252565b60405161021f9190611cd4565b60405180910390f35b610242600480360381019061023d9190611673565b611258565b005b34801561025057600080fd5b5061026b600480360381019061026691906116af565b61138f565b6040516102789190611a39565b60405180910390f35b34801561028d57600080fd5b506102a860048036038101906102a391906116af565b61139d565b6040516102b59190611a39565b60405180910390f35b600080841180156102d05750600a8411155b61030f576040517f08c379a000000000000000000000000000000000000000000000000000000000815260040161030690611b14565b60405180910390fd5b60008311610352576040517f08c379a000000000000000000000000000000000000000000000000000000000815260040161034990611c14565b60405180910390fd5b60008211610395576040517f08c379a000000000000000000000000000000000000000000000000000000000815260040161038c90611b54565b60405180910390fd5b600060046000600154815260200190815260200160002090506001548160000181905550848160010181905550600181600201819055508381600401819055506103dd611488565b8160090160006101000a81548173ffffffffffffffffffffffffffffffffffffffff021916908373ffffffffffffffffffffffffffffffffffffffff160217905550828160070181905550610430611490565b8160080181905550600060025485876104499190611d61565b6104539190611d0b565b905080826003018190555080610467611498565b10156104a8576040517f08c379a000000000000000000000000000000000000000000000000000000000815260040161049f90611c74565b60405180910390fd5b6104b0611488565b82600a01600080815260200190815260200160002060006101000a81548173ffffffffffffffffffffffffffffffffffffffff021916908373ffffffffffffffffffffffffffffffffffffffff160217905550600182600b016000610513611488565b73ffffffffffffffffffffffffffffffffffffffff1673ffffffffffffffffffffffffffffffffffffffff16815260200190815260200160002060006101000a81548160ff02191690831515021790555061056c611498565b82600c01600061057a611488565b73ffffffffffffffffffffffffffffffffffffffff1673ffffffffffffffffffffffffffffffffffffffff16815260200190815260200160002081905550600160008154809291906105cb90611e37565b91905055506001925050509392505050565b60008060046000848152602001908152602001600020905060008160090160159054906101000a900460ff1690506000826002015483600701546106219190611d61565b83600801546106309190611d0b565b610638611490565b119050811580156106465750805b610685576040517f08c379a000000000000000000000000000000000000000000000000000000000815260040161067c90611c54565b60405180910390fd5b60005b836002015481101561079657600084600f01600086600501548152602001908152602001600020600086600a01600085815260200190815260200160002060009054906101000a900473ffffffffffffffffffffffffffffffffffffffff1673ffffffffffffffffffffffffffffffffffffffff1673ffffffffffffffffffffffffffffffffffffffff168152602001908152602001600020549050600081111561078257600085600301548261073f9190611d0b565b905061078086600a01600085815260200190815260200160002060009054906101000a900473ffffffffffffffffffffffffffffffffffffffff1682611258565b505b50808061078e90611e37565b915050610688565b5060018360090160156101000a81548160ff02191690831515021790555060019350505050919050565b6000600254905090565b6000816001548110610811576040517f08c379a000000000000000000000000000000000000000000000000000000000815260040161080890611b34565b60405180910390fd5b6108228361081d611488565b6114a0565b610861576040517f08c379a000000000000000000000000000000000000000000000000000000000815260040161085890611c94565b60405180910390fd5b61086a83611557565b6108a9576040517f08c379a00000000000000000000000000000000000000000000000000000000081526004016108a090611af4565b60405180910390fd5b6108b2836115d0565b156108f2576040517f08c379a00000000000000000000000000000000000000000000000000000000081526004016108e990611ad4565b60405180910390fd5b6000600460008581526020019081526020016000209050600081600201549050600082600501549050600083600f016000838152602001908152602001600020600061093c611488565b73ffffffffffffffffffffffffffffffffffffffff1673ffffffffffffffffffffffffffffffffffffffff16815260200190815260200160002054146109b7576040517f08c379a00000000000000000000000000000000000000000000000000000000081526004016109ae90611bb4565b60405180910390fd5b60006109c1611498565b1180156109d9575082600401546109d6611498565b10155b610a18576040517f08c379a0000000000000000000000000000000000000000000000000000000008152600401610a0f90611a74565b60405180910390fd5b6000811415610bd457600083600701548460080154610a379190611d0b565b610a3f611490565b1190508015610bce5760005b83811015610ba357600085600f016000858152602001908152602001600020600087600a01600085815260200190815260200160002060009054906101000a900473ffffffffffffffffffffffffffffffffffffffff1673ffffffffffffffffffffffffffffffffffffffff1673ffffffffffffffffffffffffffffffffffffffff168152602001908152602001600020541115610b9057600085600a01600083815260200190815260200160002060009054906101000a900473ffffffffffffffffffffffffffffffffffffffff1690506000866003015487600f01600085815260200190815260200160002060008473ffffffffffffffffffffffffffffffffffffffff1673ffffffffffffffffffffffffffffffffffffffff16815260200190815260200160002054610b819190611d0b565b9050610b8d8282611258565b50505b8080610b9b90611e37565b915050610a4b565b5060018460090160156101000a81548160ff0219169083151502179055506000955050505050610f6a565b50610da0565b6000836007015484600d016000600185610bee9190611dbb565b815260200190815260200160002054610c079190611d0b565b610c0f611490565b1190508015610d9e5760005b83811015610d7357600085600f016000858152602001908152602001600020600087600a01600085815260200190815260200160002060009054906101000a900473ffffffffffffffffffffffffffffffffffffffff1673ffffffffffffffffffffffffffffffffffffffff1673ffffffffffffffffffffffffffffffffffffffff168152602001908152602001600020541115610d6057600085600a01600083815260200190815260200160002060009054906101000a900473ffffffffffffffffffffffffffffffffffffffff1690506000866003015487600f01600085815260200190815260200160002060008473ffffffffffffffffffffffffffffffffffffffff1673ffffffffffffffffffffffffffffffffffffffff16815260200190815260200160002054610d519190611d0b565b9050610d5d8282611258565b50505b8080610d6b90611e37565b915050610c1b565b5060018460090160156101000a81548160ff0219169083151502179055506000955050505050610f6a565b505b6001836006016000828254610db59190611d0b565b92505081905550610dc4611498565b83600f0160008381526020019081526020016000206000610de3611488565b73ffffffffffffffffffffffffffffffffffffffff1673ffffffffffffffffffffffffffffffffffffffff168152602001908152602001600020819055508183600601541415610f3057600183600e01600083815260200190815260200160002060006101000a81548160ff021916908315150217905550610e63611490565b83600d01600083815260200190815260200160002081905550600083600a01600083815260200190815260200160002060009054906101000a900473ffffffffffffffffffffffffffffffffffffffff169050610f128185600f01600085815260200190815260200160002060008473ffffffffffffffffffffffffffffffffffffffff1673ffffffffffffffffffffffffffffffffffffffff16815260200190815260200160002054611258565b6001846005016000828254610f279190611d0b565b92505081905550505b8181610f3b90611e37565b9150811415610f625760018360090160156101000a81548160ff0219169083151502179055505b600194505050505b50919050565b6000816001548110610fb7576040517f08c379a0000000000000000000000000000000000000000000000000000000008152600401610fae90611b34565b60405180910390fd5b826004600082815260200190815260200160002060090160149054906101000a900460ff161561101c576040517f08c379a000000000000000000000000000000000000000000000000000000000815260040161101390611bf4565b60405180910390fd5b61102d84611028611488565b6114a0565b1561103b576000925061124b565b61104484611557565b15611084576040517f08c379a000000000000000000000000000000000000000000000000000000000815260040161107b90611bd4565b60405180910390fd5b600060046000868152602001908152602001600020905060008160020154905060018260020160008282546110b99190611d0b565b9250508190555081600301546110cd611498565b101561110e576040517f08c379a000000000000000000000000000000000000000000000000000000000815260040161110590611c74565b60405180910390fd5b611116611488565b82600a01600083815260200190815260200160002060006101000a81548173ffffffffffffffffffffffffffffffffffffffff021916908373ffffffffffffffffffffffffffffffffffffffff160217905550611171611498565b82600c01600061117f611488565b73ffffffffffffffffffffffffffffffffffffffff1673ffffffffffffffffffffffffffffffffffffffff168152602001908152602001600020819055508160010154826002015410156111d85760019450505061124b565b8160010154826002015414156112105760018260090160146101000a81548160ff02191690831515021790555060019450505061124b565b6040517f08c379a000000000000000000000000000000000000000000000000000000000815260040161124290611b94565b60405180910390fd5b5050919050565b60025481565b600360009054906101000a900460ff16156112a8576040517f08c379a000000000000000000000000000000000000000000000000000000000815260040161129f90611a54565b60405180910390fd5b6001600360006101000a81548160ff02191690831515021790555060008273ffffffffffffffffffffffffffffffffffffffff16826040516112e990611a24565b60006040518083038185875af1925050503d8060008114611326576040519150601f19603f3d011682016040523d82523d6000602084013e61132b565b606091505b505090506000600360006101000a81548160ff0219169083151502179055508061138a576040517f08c379a000000000000000000000000000000000000000000000000000000000815260040161138190611ab4565b60405180910390fd5b505050565b600060015482109050919050565b60008060009054906101000a900473ffffffffffffffffffffffffffffffffffffffff1673ffffffffffffffffffffffffffffffffffffffff166113df611488565b73ffffffffffffffffffffffffffffffffffffffff1614611435576040517f08c379a000000000000000000000000000000000000000000000000000000000815260040161142c90611cb4565b60405180910390fd5b60008211611478576040517f08c379a000000000000000000000000000000000000000000000000000000000815260040161146f90611b74565b60405180910390fd5b8160028190555060019050919050565b600033905090565b600042905090565b600034905090565b60008260015481106114e7576040517f08c379a00000000000000000000000000000000000000000000000000000000081526004016114de90611b34565b60405180910390fd5b600060046000868152602001908152602001600020905080600b0160008573ffffffffffffffffffffffffffffffffffffffff1673ffffffffffffffffffffffffffffffffffffffff16815260200190815260200160002060009054906101000a900460ff169250505092915050565b600081600154811061159e576040517f08c379a000000000000000000000000000000000000000000000000000000000815260040161159590611b34565b60405180910390fd5b60006004600085815260200190815260200160002090508060090160149054906101000a900460ff1692505050919050565b6000816001548110611617576040517f08c379a000000000000000000000000000000000000000000000000000000000815260040161160e90611b34565b60405180910390fd5b60006004600085815260200190815260200160002090508060090160159054906101000a900460ff1692505050919050565b6000813590506116588161233c565b92915050565b60008135905061166d81612353565b92915050565b6000806040838503121561168657600080fd5b600061169485828601611649565b92505060206116a58582860161165e565b9150509250929050565b6000602082840312156116c157600080fd5b60006116cf8482850161165e565b91505092915050565b6000806000606084860312156116ed57600080fd5b60006116fb8682870161165e565b935050602061170c8682870161165e565b925050604061171d8682870161165e565b9150509250925092565b61173081611e01565b82525050565b6000611743601d83611cfa565b915061174e82611eaf565b602082019050919050565b6000611766602c83611cfa565b915061177182611ed8565b604082019050919050565b6000611789602083611cfa565b915061179482611f27565b602082019050919050565b60006117ac601483611cfa565b91506117b782611f50565b602082019050919050565b60006117cf601983611cfa565b91506117da82611f79565b602082019050919050565b60006117f2602383611cfa565b91506117fd82611fa2565b604082019050919050565b6000611815602483611cfa565b915061182082611ff1565b604082019050919050565b6000611838601483611cfa565b915061184382612040565b602082019050919050565b600061185b601d83611cfa565b915061186682612069565b602082019050919050565b600061187e601c83611cfa565b915061188982612092565b602082019050919050565b60006118a1602083611cfa565b91506118ac826120bb565b602082019050919050565b60006118c4602283611cfa565b91506118cf826120e4565b604082019050919050565b60006118e7601683611cfa565b91506118f282612133565b602082019050919050565b600061190a602183611cfa565b91506119158261215c565b604082019050919050565b600061192d602383611cfa565b9150611938826121ab565b604082019050919050565b6000611950600083611cef565b915061195b826121fa565b600082019050919050565b6000611973602d83611cfa565b915061197e826121fd565b604082019050919050565b6000611996603183611cfa565b91506119a18261224c565b604082019050919050565b60006119b9602d83611cfa565b91506119c48261229b565b604082019050919050565b60006119dc601983611cfa565b91506119e7826122ea565b602082019050919050565b60006119ff601683611cfa565b9150611a0a82612313565b602082019050919050565b611a1e81611e2d565b82525050565b6000611a2f82611943565b9150819050919050565b6000602082019050611a4e6000830184611727565b92915050565b60006020820190508181036000830152611a6d81611736565b9050919050565b60006020820190508181036000830152611a8d81611759565b9050919050565b60006020820190508181036000830152611aad8161177c565b9050919050565b60006020820190508181036000830152611acd8161179f565b9050919050565b60006020820190508181036000830152611aed816117c2565b9050919050565b60006020820190508181036000830152611b0d816117e5565b9050919050565b60006020820190508181036000830152611b2d81611808565b9050919050565b60006020820190508181036000830152611b4d8161182b565b9050919050565b60006020820190508181036000830152611b6d8161184e565b9050919050565b60006020820190508181036000830152611b8d81611871565b9050919050565b60006020820190508181036000830152611bad81611894565b9050919050565b60006020820190508181036000830152611bcd816118b7565b9050919050565b60006020820190508181036000830152611bed816118da565b9050919050565b60006020820190508181036000830152611c0d816118fd565b9050919050565b60006020820190508181036000830152611c2d81611920565b9050919050565b60006020820190508181036000830152611c4d81611966565b9050919050565b60006020820190508181036000830152611c6d81611989565b9050919050565b60006020820190508181036000830152611c8d816119ac565b9050919050565b60006020820190508181036000830152611cad816119cf565b9050919050565b60006020820190508181036000830152611ccd816119f2565b9050919050565b6000602082019050611ce96000830184611a15565b92915050565b600081905092915050565b600082825260208201905092915050565b6000611d1682611e2d565b9150611d2183611e2d565b9250827fffffffffffffffffffffffffffffffffffffffffffffffffffffffffffffffff03821115611d5657611d55611e80565b5b828201905092915050565b6000611d6c82611e2d565b9150611d7783611e2d565b9250817fffffffffffffffffffffffffffffffffffffffffffffffffffffffffffffffff0483118215151615611db057611daf611e80565b5b828202905092915050565b6000611dc682611e2d565b9150611dd183611e2d565b925082821015611de457611de3611e80565b5b828203905092915050565b6000611dfa82611e0d565b9050919050565b60008115159050919050565b600073ffffffffffffffffffffffffffffffffffffffff82169050919050565b6000819050919050565b6000611e4282611e2d565b91507fffffffffffffffffffffffffffffffffffffffffffffffffffffffffffffffff821415611e7557611e74611e80565b5b600182019050919050565b7f4e487b7100000000000000000000000000000000000000000000000000000000600052601160045260246000fd5b7f72652d72656e7472616e742063616c6c73206e6f7420616c6c6f776564000000600082015250565b7f45746865722073656e74206d75737420657863656564207a65726f20616e642060008201527f726f756e7420616d6f756e740000000000000000000000000000000000000000602082015250565b7f466f72636566756c204554484552207472616e736665722072656a6563746564600082015250565b7f4661696c656420746f2073656e64204574686572000000000000000000000000600082015250565b7f54687269667420686173206265656e20636f6d706c6574656400000000000000600082015250565b7f54687269667420636f6e747269627574696f6e2069732079657420746f20737460008201527f6172740000000000000000000000000000000000000000000000000000000000602082015250565b7f4f6e6c79206f6e6520746f2074656e207061727469636970616e747320616c6c60008201527f6f77656400000000000000000000000000000000000000000000000000000000602082015250565b7f546872696674206e6f74206578697374656e6365000000000000000000000000600082015250565b7f526f756e6420706572696f64206d75737420657863656564207a65726f000000600082015250565b7f50656e616c747920666565206d75737420657863656564207a65726f00000000600082015250565b7f4d6178207061727469636970616e7473207265616368656420616c7265616479600082015250565b7f43616e6e6f7420636f6e7472696275746520747769636520746f206120726f7560008201527f6e64000000000000000000000000000000000000000000000000000000000000602082015250565b7f54687269667420616c7265616479207374617274656400000000000000000000600082015250565b7f54687269667420636c6f73656420746f206e6577207061727469636970616e7460008201527f7300000000000000000000000000000000000000000000000000000000000000602082015250565b7f526f756e6420636f6e747269627574696f6e206d75737420657863656564207a60008201527f65726f0000000000000000000000000000000000000000000000000000000000602082015250565b50565b7f556e6b6e6f776e20636f6e74726163742063616c6c204554484552207472616e60008201527f736665722072656a656374656400000000000000000000000000000000000000602082015250565b7f54687269667420616c726561647920636f6d706c65746564206f72206465616460008201527f6c696e65206e6f74206578636565646564000000000000000000000000000000602082015250565b7f53656e6420457468657220616d6f756e74206571756976616c656e7420746f2060008201527f6d696e696d756d207374616b6500000000000000000000000000000000000000602082015250565b7f41646472657373206e6f74206120636f6e7472696275746f7200000000000000600082015250565b7f53656e646572206973206e6f7420616e2061646d696e00000000000000000000600082015250565b61234581611def565b811461235057600080fd5b50565b61235c81611e2d565b811461236757600080fd5b5056fea26469706673582212206e2d973a54b08aeec867f489f8a8b1c0204749475c512eb45d4e320e8d2f18dd64736f6c63430008010033",
  "immutableReferences": {},
  "source": "// SPDX-License-Identifier: MIT\npragma solidity ^0.8.1;\n\ncontract ThriftManager {\n    // address with priviledge to adjust contract parameters\n    address admin;\n\n    // tracks the thrift count explicitly and ID implicitly\n    uint256 nextThriftId;\n\n    // fee for defaulting thrift participants is sinked to the contract account\n    uint256 public PENALTY_FEE = 0.001 ether;\n\n    // lock to guard reentrancy\n    bool lock;\n\n    // constructor\n    constructor() {\n        admin = _msgSender();\n    }\n\n    // defines the thrift struct\n    struct Thrift {\n        uint256 id;\n        uint256 maxParticipants;\n        uint256 numParticipants;            // number of participants in the thrift\n        uint256 minStake;\n        uint256 roundAmount;                // per participant contribution amount in a round\n        uint256 curRound;                   // tracks the current round count\n        uint256 roundContributionCount;     // track participants count that has contributed for every round\n        uint256 roundPeriod;                // time allowed for every round\n        uint startTime;                     // tracks time when thrift kickstarts\n        address creator;                    // address that started the thrift\n        bool start;                         // starts when max participants is reached\n        bool completed;                     // completed when all participants funds has been disbursed or a paricipant defaults oncontribution\n        mapping(uint256 => address payable) contributorsRank;\n        mapping(address => bool) contributors;\n        mapping(address => uint256) hasStaked;\n        mapping(uint256 => uint256) roundCompletionTime;                                // tracks when rounds are completed\n        mapping(uint256 => bool) roundCompleted;                                        // track round completion incrementally\n        mapping(uint256 => mapping(address => uint256)) roundContributionAmount;        // track  participants contribution for a given round\n    }\n\n    mapping(uint256 => Thrift) thrifts;\n    mapping(uint256 => uint256) thriftBalances;                                         // track funds in any given thrift\n\n    // start a new thrift\n    function createThrift(uint256 _maxParticipants, uint256 _roundAmount,uint256 _roundPeriod) payable external returns(bool) {\n        require(_maxParticipants > 0 && _maxParticipants <= 10, \"Only one to ten participants allowed\");\n        require(_roundAmount > 0, \"Round contribution must exceed zero\");\n        require(_roundPeriod > 0, \"Round period must exceed zero\");\n        Thrift storage newThrift = thrifts[nextThriftId];\n        newThrift.id = nextThriftId;\n        newThrift.maxParticipants = _maxParticipants;\n        newThrift.numParticipants = 1;\n        newThrift.roundAmount = _roundAmount;\n        newThrift.creator = _msgSender();\n        newThrift.roundPeriod = _roundPeriod;\n        newThrift.startTime = _timeStamp();\n        uint256 _minStake = (_maxParticipants * _roundAmount) + PENALTY_FEE;\n        newThrift.minStake = _minStake;\n        // creator should deposit minimum stake\n        require(_msgValue() >= _minStake, \"Send Ether amount equivalent to minimum stake\");\n        newThrift.contributorsRank[0] = payable(_msgSender());\n        newThrift.contributors[_msgSender()] = true;\n        newThrift.hasStaked[_msgSender()] = _msgValue();\n        nextThriftId++;\n        return true;\n    }\n\n    //  join a thrift with minimum stake deposit\n    function joinThrift(uint256 _thriftID) payable external thriftExists(_thriftID) thriftNotStarted(_thriftID) returns(bool) {\n        if(_isContributor(_thriftID, _msgSender())) {\n            return false;\n        }\n        require(!_hasStarted(_thriftID), \"Thrift already started\");\n        Thrift storage thrift = thrifts[_thriftID];\n        uint256 position = thrift.numParticipants;\n        thrift.numParticipants += 1;\n        require(_msgValue() >= thrift.minStake, \"Send Ether amount equivalent to minimum stake\");\n        thrift.contributorsRank[position] = payable(_msgSender());\n        thrift.hasStaked[_msgSender()] = _msgValue();\n        // check if maximum participants is reached\n        if(thrift.numParticipants < (thrift.maxParticipants)) {\n            return true;\n        }else if(thrift.numParticipants == (thrift.maxParticipants)) {  // start thrift once max participantis reached\n            thrift.start = true;\n            return true;\n        }else {                                                         // revert if max participants exceeded\n            revert(\"Max participants reached already\");\n        }\n    }\n\n    // adding contribution to a thrift round\n    function contributeToThrift(uint256 _thriftID) payable external thriftExists(_thriftID) returns(bool) {\n        require(_isContributor(_thriftID, _msgSender()), \"Address not a contributor\");\n        require(_hasStarted(_thriftID), \"Thrift contribution is yet to start\");\n        require(!_hasCompleted(_thriftID), \"Thrift has been completed\");\n        Thrift storage thrift = thrifts[_thriftID];\n        uint256 numParticipants = thrift.numParticipants;\n        uint256 curRound = thrift.curRound;\n        require(thrift.roundContributionAmount[curRound][_msgSender()] == 0, \"Cannot contribute twice to a round\");\n        require(_msgValue() > 0 && _msgValue() >= thrift.roundAmount, \"Ether sent must exceed zero and rount amount\");\n        // account for rouund period and close thrift if its been ellapsed\n        if(curRound == 0) {\n            bool periodEllapsed = _timeStamp() > thrift.startTime + thrift.roundPeriod;\n            if(periodEllapsed) {\n                // punish defaulters and close thrift\n                for(uint i=0; i<numParticipants; i++) {\n                    if(thrift.roundContributionAmount[curRound][thrift.contributorsRank[i]] > 0) {\n                        address recipientContrib = thrift.contributorsRank[i];\n                        uint256 amount = thrift.roundContributionAmount[i][recipientContrib] + thrift.minStake;\n                        _sendViaCall(recipientContrib, amount);\n                    }\n                }\n                thrift.completed = true;\n                return false;\n            }\n        }else {\n            bool periodEllapsed = _timeStamp() > thrift.roundCompletionTime[curRound-1] + thrift.roundPeriod;\n            if(periodEllapsed) {\n                // punish defaulters and close thrift\n                for(uint i=0; i<numParticipants; i++) {\n                    if(thrift.roundContributionAmount[curRound][thrift.contributorsRank[i]] > 0) {\n                        address recipientContrib = thrift.contributorsRank[i];\n                        uint256 amount = thrift.roundContributionAmount[i][recipientContrib] + thrift.minStake;\n                        _sendViaCall(recipientContrib, amount);\n                    }\n                }\n                thrift.completed = true;\n                return false;\n            }\n        }\n        thrift.roundContributionCount += 1;\n        thrift.roundContributionAmount[curRound][_msgSender()] = _msgValue();\n        \n        // last contribution sholud update relevant thrift state information and disburse funds\n        if(thrift.roundContributionCount == numParticipants) {\n            thrift.roundCompleted[curRound] = true;\n            thrift.roundCompletionTime[curRound] = _timeStamp();\n            // disburse funds to round collector and update round \n            address recipientContrib = thrift.contributorsRank[curRound];\n            _sendViaCall(recipientContrib, thrift.roundContributionAmount[curRound][recipientContrib]);\n            thrift.curRound += 1;\n        }\n        // thrift is completed\n        if(++curRound == numParticipants) {\n            thrift.completed = true;\n        }\n        return true;\n    }\n\n    // anyone can close thrift when \n    // 1. thrift is not yet completed and,\n    // 2. block timestamp has exceeded the deadline\n    function closeThrift(uint256 _thriftID) external returns(bool) {\n        Thrift storage thrift = thrifts[_thriftID];\n        bool completed = thrift.completed;\n        bool deadline = _timeStamp() > thrift.startTime + (thrift.roundPeriod * thrift.numParticipants);\n        require(!completed && deadline, \"Thrift already completed or deadline not exceeded\");\n        // check for defaulters and apply punishment\n        for(uint i=0; i<thrift.numParticipants; i++) {\n            uint256 contribAmount = thrift.roundContributionAmount[thrift.curRound][thrift.contributorsRank[i]];\n            if(contribAmount > 0) {\n                uint256 amount = contribAmount + thrift.minStake;\n                _sendViaCall(thrift.contributorsRank[i], amount);\n            }\n        }\n        thrift.completed = true;\n        return true;\n    }\n\n    // update penalty fee\n    function updatePenaltyFee(uint256 _newFees) external onlyAdmin() returns(bool) {\n        require(_newFees > 0, \"Penalty fee must exceed zero\");\n        PENALTY_FEE = _newFees;\n        return true;\n    }\n\n    // get the penalty fee        // This is the current recommended method to use.\n\n    function getPenaltyFee() external view returns(uint256) {\n        return PENALTY_FEE;\n    }\n\n    // external agent can check if a thrift exists in the contract\n    function thriftValid(uint256 _thriftID) external view returns(bool){\n        return _thriftID < nextThriftId;\n    }\n\n\n    // CONTRACT HELPERS\n    //\n    function _msgSender() internal view returns(address) {\n        return msg.sender;\n    }\n\n    function _msgValue() internal view returns(uint256) {\n        return msg.value;\n    }\n\n    function _timeStamp() internal view returns(uint256) {\n        return block.timestamp;\n    }\n\n    function _isContributor(uint256 _thriftID, address _contributor) internal view thriftExists(_thriftID) returns(bool) {\n        Thrift storage thrift = thrifts[_thriftID];\n        return thrift.contributors[_contributor];\n    }\n\n    function _hasStarted(uint256 _thriftID) internal view thriftExists(_thriftID) returns(bool) {\n        Thrift storage thrift = thrifts[_thriftID];\n        return thrift.start;\n    }\n\n    function _hasCompleted(uint256 _thriftID) internal view thriftExists(_thriftID) returns(bool) {\n        Thrift storage thrift = thrifts[_thriftID];\n        return thrift.completed;\n    }\n    \n\n    function _sendViaCall(address _to, uint256 amount) public payable {\n        require(!lock, \"re-rentrant calls not allowed\");\n        lock = true;\n        (bool sent,) = payable(_to).call{value: amount}(\"\");\n        lock = false;\n        require(sent, \"Failed to send Ether\");\n    }\n\n    // CONTRACT MODIFIERS\n    //\n    modifier onlyAdmin() {\n        require(_msgSender() == admin, \"Sender is not an admin\");\n        _;\n    }\n\n    modifier thriftExists(uint256 _thriftID) {\n        require(_thriftID < nextThriftId, \"Thrift not existence\");\n        _;\n    }\n\n    modifier thriftNotStarted(uint256 _thriftID) {\n        require(!thrifts[_thriftID].start, \"Thrift closed to new participants\");\n        _;\n    }\n\n    // prevent ether transfers for unknown contract call */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\n    fallback() payable external {\n        revert(\"Unknown contract call ETHER transfer rejected\");\n    }\n\n    // prevent forceful ETHER transfers on empty msg.data\n    receive() external payable {\n        revert(\"Forceful ETHER transfer rejected\");\n    }\n}",
  "sourcePath": "/home/nuel/oss/blockchain-developer-bootcamp-final-project/contracts/Thrift.sol",
  "compiler": {
    "name": "solc",
    "version": "0.8.1+commit.df193b15.Emscripten.clang"
  },
  "schemaVersion": "3.4.4",
  "updatedAt": "2022-02-02T07:58:22.247Z",
  "devdoc": {
    "kind": "dev",
    "methods": {},
    "version": 1
  },
  "userdoc": {
    "kind": "user",
    "methods": {},
    "version": 1
  }
}