{
  "contractName": "ThriftManager",
  "abi": [
    {
      "inputs": [],
      "stateMutability": "nonpayable",
      "type": "constructor"
    },
    {
      "stateMutability": "payable",
      "type": "fallback"
    },
    {
      "inputs": [],
      "name": "PENALTY_FEE",
      "outputs": [
        {
          "internalType": "uint256",
          "name": "",
          "type": "uint256"
        }
      ],
      "stateMutability": "view",
      "type": "function"
    },
    {
      "stateMutability": "payable",
      "type": "receive"
    },
    {
      "inputs": [
        {
          "internalType": "uint256",
          "name": "_maxParticipants",
          "type": "uint256"
        },
        {
          "internalType": "uint256",
          "name": "_roundAmount",
          "type": "uint256"
        },
        {
          "internalType": "uint256",
          "name": "_roundPeriod",
          "type": "uint256"
        }
      ],
      "name": "createThrift",
      "outputs": [
        {
          "internalType": "bool",
          "name": "",
          "type": "bool"
        }
      ],
      "stateMutability": "payable",
      "type": "function"
    },
    {
      "inputs": [
        {
          "internalType": "uint256",
          "name": "_thriftID",
          "type": "uint256"
        }
      ],
      "name": "joinThrift",
      "outputs": [
        {
          "internalType": "bool",
          "name": "",
          "type": "bool"
        }
      ],
      "stateMutability": "payable",
      "type": "function"
    },
    {
      "inputs": [
        {
          "internalType": "uint256",
          "name": "_thriftID",
          "type": "uint256"
        }
      ],
      "name": "contributeToThrift",
      "outputs": [
        {
          "internalType": "bool",
          "name": "",
          "type": "bool"
        }
      ],
      "stateMutability": "payable",
      "type": "function"
    },
    {
      "inputs": [
        {
          "internalType": "uint256",
          "name": "_thriftID",
          "type": "uint256"
        }
      ],
      "name": "closeThrift",
      "outputs": [
        {
          "internalType": "bool",
          "name": "",
          "type": "bool"
        }
      ],
      "stateMutability": "nonpayable",
      "type": "function"
    },
    {
      "inputs": [
        {
          "internalType": "uint256",
          "name": "_thriftID",
          "type": "uint256"
        }
      ],
      "name": "thriftValid",
      "outputs": [
        {
          "internalType": "bool",
          "name": "",
          "type": "bool"
        }
      ],
      "stateMutability": "view",
      "type": "function"
    },
    {
      "inputs": [
        {
          "internalType": "address",
          "name": "_to",
          "type": "address"
        },
        {
          "internalType": "uint256",
          "name": "amount",
          "type": "uint256"
        }
      ],
      "name": "_sendViaCall",
      "outputs": [],
      "stateMutability": "payable",
      "type": "function"
    }
  ],
  "bytecode": "0x608060405266038d7ea4c6800060025534801561001b57600080fd5b5061002a61006e60201b60201c565b6000806101000a81548173ffffffffffffffffffffffffffffffffffffffff021916908373ffffffffffffffffffffffffffffffffffffffff160217905550610076565b600033905090565b612030806100856000396000f3fe6080604052600436106100745760003560e01c80639412c7dd1161004e5780639412c7dd1461018c578063a673e31a146101bc578063c9b1d38b146101e7578063db4de45e14610203576100b4565b80631ba8be6d146100ef57806346d32b421461011f578063928c7d801461015c576100b4565b366100b4576040517f08c379a00000000000000000000000000000000000000000000000000000000081526004016100ab906117ff565b60405180910390fd5b6040517f08c379a00000000000000000000000000000000000000000000000000000000081526004016100e69061195f565b60405180910390fd5b610109600480360381019061010491906114ac565b610240565b60405161011691906117a4565b60405180910390f35b34801561012b57600080fd5b5061014660048036038101906101419190611483565b61055f565b60405161015391906117a4565b60405180910390f35b61017660048036038101906101719190611483565b610742565b60405161018391906117a4565b60405180910390f35b6101a660048036038101906101a19190611483565b610ea8565b6040516101b391906117a4565b60405180910390f35b3480156101c857600080fd5b506101d161118a565b6040516101de91906119df565b60405180910390f35b61020160048036038101906101fc9190611447565b611190565b005b34801561020f57600080fd5b5061022a60048036038101906102259190611483565b6112c7565b60405161023791906117a4565b60405180910390f35b600080841180156102525750600a8411155b610291576040517f08c379a00000000000000000000000000000000000000000000000000000000081526004016102889061185f565b60405180910390fd5b600083116102d4576040517f08c379a00000000000000000000000000000000000000000000000000000000081526004016102cb9061193f565b60405180910390fd5b60008211610317576040517f08c379a000000000000000000000000000000000000000000000000000000000815260040161030e9061189f565b60405180910390fd5b6000600460006001548152602001908152602001600020905060015481600001819055508481600101819055506001816002018190555083816004018190555061035f6112d5565b8160090160006101000a81548173ffffffffffffffffffffffffffffffffffffffff021916908373ffffffffffffffffffffffffffffffffffffffff1602179055508281600701819055506103b26112dd565b8160080181905550600060025485876103cb9190611a6c565b6103d59190611a16565b9050808260030181905550806103e96112e5565b101561042a576040517f08c379a00000000000000000000000000000000000000000000000000000000081526004016104219061199f565b60405180910390fd5b6104326112d5565b82600a01600080815260200190815260200160002060006101000a81548173ffffffffffffffffffffffffffffffffffffffff021916908373ffffffffffffffffffffffffffffffffffffffff160217905550600182600b0160006104956112d5565b73ffffffffffffffffffffffffffffffffffffffff1673ffffffffffffffffffffffffffffffffffffffff16815260200190815260200160002060006101000a81548160ff0219169083151502179055506104ee6112e5565b82600c0160006104fc6112d5565b73ffffffffffffffffffffffffffffffffffffffff1673ffffffffffffffffffffffffffffffffffffffff168152602001908152602001600020819055506001600081548092919061054d90611b42565b91905055506001925050509392505050565b60008060046000848152602001908152602001600020905060008160090160159054906101000a900460ff1690506000826002015483600701546105a39190611a6c565b83600801546105b29190611a16565b6105ba6112dd565b119050811580156105c85750805b610607576040517f08c379a00000000000000000000000000000000000000000000000000000000081526004016105fe9061197f565b60405180910390fd5b60005b836002015481101561071857600084600f01600086600501548152602001908152602001600020600086600a01600085815260200190815260200160002060009054906101000a900473ffffffffffffffffffffffffffffffffffffffff1673ffffffffffffffffffffffffffffffffffffffff1673ffffffffffffffffffffffffffffffffffffffff16815260200190815260200160002054905060008111156107045760008560030154826106c19190611a16565b905061070286600a01600085815260200190815260200160002060009054906101000a900473ffffffffffffffffffffffffffffffffffffffff1682611190565b505b50808061071090611b42565b91505061060a565b5060018360090160156101000a81548160ff02191690831515021790555060019350505050919050565b6000816001548110610789576040517f08c379a00000000000000000000000000000000000000000000000000000000081526004016107809061187f565b60405180910390fd5b61079a836107956112d5565b6112ed565b6107d9576040517f08c379a00000000000000000000000000000000000000000000000000000000081526004016107d0906119bf565b60405180910390fd5b6107e2836113a4565b610821576040517f08c379a00000000000000000000000000000000000000000000000000000000081526004016108189061183f565b60405180910390fd5b6000600460008581526020019081526020016000209050600081600201549050600082600501549050600083600f016000838152602001908152602001600020600061086b6112d5565b73ffffffffffffffffffffffffffffffffffffffff1673ffffffffffffffffffffffffffffffffffffffff16815260200190815260200160002054146108e6576040517f08c379a00000000000000000000000000000000000000000000000000000000081526004016108dd906118df565b60405180910390fd5b60006108f06112e5565b118015610908575082600401546109056112e5565b10155b610947576040517f08c379a000000000000000000000000000000000000000000000000000000000815260040161093e906117df565b60405180910390fd5b6000811415610b03576000836007015484600801546109669190611a16565b61096e6112dd565b1190508015610afd5760005b83811015610ad257600085600f016000858152602001908152602001600020600087600a01600085815260200190815260200160002060009054906101000a900473ffffffffffffffffffffffffffffffffffffffff1673ffffffffffffffffffffffffffffffffffffffff1673ffffffffffffffffffffffffffffffffffffffff168152602001908152602001600020541115610abf57600085600a01600083815260200190815260200160002060009054906101000a900473ffffffffffffffffffffffffffffffffffffffff1690506000866003015487600f01600085815260200190815260200160002060008473ffffffffffffffffffffffffffffffffffffffff1673ffffffffffffffffffffffffffffffffffffffff16815260200190815260200160002054610ab09190611a16565b9050610abc8282611190565b50505b8080610aca90611b42565b91505061097a565b5060018460090160156101000a81548160ff0219169083151502179055506000955050505050610ea2565b50610ccf565b6000836007015484600d016000600185610b1d9190611ac6565b815260200190815260200160002054610b369190611a16565b610b3e6112dd565b1190508015610ccd5760005b83811015610ca257600085600f016000858152602001908152602001600020600087600a01600085815260200190815260200160002060009054906101000a900473ffffffffffffffffffffffffffffffffffffffff1673ffffffffffffffffffffffffffffffffffffffff1673ffffffffffffffffffffffffffffffffffffffff168152602001908152602001600020541115610c8f57600085600a01600083815260200190815260200160002060009054906101000a900473ffffffffffffffffffffffffffffffffffffffff1690506000866003015487600f01600085815260200190815260200160002060008473ffffffffffffffffffffffffffffffffffffffff1673ffffffffffffffffffffffffffffffffffffffff16815260200190815260200160002054610c809190611a16565b9050610c8c8282611190565b50505b8080610c9a90611b42565b915050610b4a565b5060018460090160156101000a81548160ff0219169083151502179055506000955050505050610ea2565b505b6001836006016000828254610ce49190611a16565b92505081905550610cf36112e5565b83600f0160008381526020019081526020016000206000610d126112d5565b73ffffffffffffffffffffffffffffffffffffffff1673ffffffffffffffffffffffffffffffffffffffff168152602001908152602001600020819055508183600601541415610e6857600183600e01600083815260200190815260200160002060006101000a81548160ff021916908315150217905550610d926112dd565b83600d0160008381526020019081526020016000208190555081811015610e6757600083600a01600083815260200190815260200160002060009054906101000a900473ffffffffffffffffffffffffffffffffffffffff169050610e498185600f01600085815260200190815260200160002060008473ffffffffffffffffffffffffffffffffffffffff1673ffffffffffffffffffffffffffffffffffffffff16815260200190815260200160002054611190565b6001846005016000828254610e5e9190611a16565b92505081905550505b5b8181610e7390611b42565b9150811415610e9a5760018360090160156101000a81548160ff0219169083151502179055505b600194505050505b50919050565b6000816001548110610eef576040517f08c379a0000000000000000000000000000000000000000000000000000000008152600401610ee69061187f565b60405180910390fd5b826004600082815260200190815260200160002060090160149054906101000a900460ff1615610f54576040517f08c379a0000000000000000000000000000000000000000000000000000000008152600401610f4b9061191f565b60405180910390fd5b610f6584610f606112d5565b6112ed565b15610f735760009250611183565b610f7c846113a4565b15610fbc576040517f08c379a0000000000000000000000000000000000000000000000000000000008152600401610fb3906118ff565b60405180910390fd5b60006004600086815260200190815260200160002090506000816002015490506001826002016000828254610ff19190611a16565b9250508190555081600301546110056112e5565b1015611046576040517f08c379a000000000000000000000000000000000000000000000000000000000815260040161103d9061199f565b60405180910390fd5b61104e6112d5565b82600a01600083815260200190815260200160002060006101000a81548173ffffffffffffffffffffffffffffffffffffffff021916908373ffffffffffffffffffffffffffffffffffffffff1602179055506110a96112e5565b82600c0160006110b76112d5565b73ffffffffffffffffffffffffffffffffffffffff1673ffffffffffffffffffffffffffffffffffffffff1681526020019081526020016000208190555081600101548260020154101561111057600194505050611183565b8160010154826002015414156111485760018260090160146101000a81548160ff021916908315150217905550600194505050611183565b6040517f08c379a000000000000000000000000000000000000000000000000000000000815260040161117a906118bf565b60405180910390fd5b5050919050565b60025481565b600360009054906101000a900460ff16156111e0576040517f08c379a00000000000000000000000000000000000000000000000000000000081526004016111d7906117bf565b60405180910390fd5b6001600360006101000a81548160ff02191690831515021790555060008273ffffffffffffffffffffffffffffffffffffffff16826040516112219061178f565b60006040518083038185875af1925050503d806000811461125e576040519150601f19603f3d011682016040523d82523d6000602084013e611263565b606091505b505090506000600360006101000a81548160ff021916908315150217905550806112c2576040517f08c379a00000000000000000000000000000000000000000000000000000000081526004016112b99061181f565b60405180910390fd5b505050565b600060015482109050919050565b600033905090565b600042905090565b600034905090565b6000826001548110611334576040517f08c379a000000000000000000000000000000000000000000000000000000000815260040161132b9061187f565b60405180910390fd5b600060046000868152602001908152602001600020905080600b0160008573ffffffffffffffffffffffffffffffffffffffff1673ffffffffffffffffffffffffffffffffffffffff16815260200190815260200160002060009054906101000a900460ff169250505092915050565b60008160015481106113eb576040517f08c379a00000000000000000000000000000000000000000000000000000000081526004016113e29061187f565b60405180910390fd5b60006004600085815260200190815260200160002090508060090160149054906101000a900460ff1692505050919050565b60008135905061142c81611fcc565b92915050565b60008135905061144181611fe3565b92915050565b6000806040838503121561145a57600080fd5b60006114688582860161141d565b925050602061147985828601611432565b9150509250929050565b60006020828403121561149557600080fd5b60006114a384828501611432565b91505092915050565b6000806000606084860312156114c157600080fd5b60006114cf86828701611432565b93505060206114e086828701611432565b92505060406114f186828701611432565b9150509250925092565b61150481611b0c565b82525050565b6000611517601d83611a05565b915061152282611bba565b602082019050919050565b600061153a602c83611a05565b915061154582611be3565b604082019050919050565b600061155d602083611a05565b915061156882611c32565b602082019050919050565b6000611580601483611a05565b915061158b82611c5b565b602082019050919050565b60006115a3602383611a05565b91506115ae82611c84565b604082019050919050565b60006115c6602483611a05565b91506115d182611cd3565b604082019050919050565b60006115e9601483611a05565b91506115f482611d22565b602082019050919050565b600061160c601d83611a05565b915061161782611d4b565b602082019050919050565b600061162f602083611a05565b915061163a82611d74565b602082019050919050565b6000611652602283611a05565b915061165d82611d9d565b604082019050919050565b6000611675601683611a05565b915061168082611dec565b602082019050919050565b6000611698602183611a05565b91506116a382611e15565b604082019050919050565b60006116bb602383611a05565b91506116c682611e64565b604082019050919050565b60006116de6000836119fa565b91506116e982611eb3565b600082019050919050565b6000611701602d83611a05565b915061170c82611eb6565b604082019050919050565b6000611724603183611a05565b915061172f82611f05565b604082019050919050565b6000611747602d83611a05565b915061175282611f54565b604082019050919050565b600061176a601983611a05565b915061177582611fa3565b602082019050919050565b61178981611b38565b82525050565b600061179a826116d1565b9150819050919050565b60006020820190506117b960008301846114fb565b92915050565b600060208201905081810360008301526117d88161150a565b9050919050565b600060208201905081810360008301526117f88161152d565b9050919050565b6000602082019050818103600083015261181881611550565b9050919050565b6000602082019050818103600083015261183881611573565b9050919050565b6000602082019050818103600083015261185881611596565b9050919050565b60006020820190508181036000830152611878816115b9565b9050919050565b60006020820190508181036000830152611898816115dc565b9050919050565b600060208201905081810360008301526118b8816115ff565b9050919050565b600060208201905081810360008301526118d881611622565b9050919050565b600060208201905081810360008301526118f881611645565b9050919050565b6000602082019050818103600083015261191881611668565b9050919050565b600060208201905081810360008301526119388161168b565b9050919050565b60006020820190508181036000830152611958816116ae565b9050919050565b60006020820190508181036000830152611978816116f4565b9050919050565b6000602082019050818103600083015261199881611717565b9050919050565b600060208201905081810360008301526119b88161173a565b9050919050565b600060208201905081810360008301526119d88161175d565b9050919050565b60006020820190506119f46000830184611780565b92915050565b600081905092915050565b600082825260208201905092915050565b6000611a2182611b38565b9150611a2c83611b38565b9250827fffffffffffffffffffffffffffffffffffffffffffffffffffffffffffffffff03821115611a6157611a60611b8b565b5b828201905092915050565b6000611a7782611b38565b9150611a8283611b38565b9250817fffffffffffffffffffffffffffffffffffffffffffffffffffffffffffffffff0483118215151615611abb57611aba611b8b565b5b828202905092915050565b6000611ad182611b38565b9150611adc83611b38565b925082821015611aef57611aee611b8b565b5b828203905092915050565b6000611b0582611b18565b9050919050565b60008115159050919050565b600073ffffffffffffffffffffffffffffffffffffffff82169050919050565b6000819050919050565b6000611b4d82611b38565b91507fffffffffffffffffffffffffffffffffffffffffffffffffffffffffffffffff821415611b8057611b7f611b8b565b5b600182019050919050565b7f4e487b7100000000000000000000000000000000000000000000000000000000600052601160045260246000fd5b7f72652d72656e7472616e742063616c6c73206e6f7420616c6c6f776564000000600082015250565b7f45746865722073656e74206d75737420657863656564207a65726f20616e642060008201527f726f756e7420616d6f756e740000000000000000000000000000000000000000602082015250565b7f466f72636566756c204554484552207472616e736665722072656a6563746564600082015250565b7f4661696c656420746f2073656e64204574686572000000000000000000000000600082015250565b7f54687269667420636f6e747269627574696f6e2069732079657420746f20737460008201527f6172740000000000000000000000000000000000000000000000000000000000602082015250565b7f4f6e6c79206f6e6520746f2074656e207061727469636970616e747320616c6c60008201527f6f77656400000000000000000000000000000000000000000000000000000000602082015250565b7f546872696674206e6f74206578697374656e6365000000000000000000000000600082015250565b7f526f756e6420706572696f64206d75737420657863656564207a65726f000000600082015250565b7f4d6178207061727469636970616e7473207265616368656420616c7265616479600082015250565b7f43616e6e6f7420636f6e7472696275746520747769636520746f206120726f7560008201527f6e64000000000000000000000000000000000000000000000000000000000000602082015250565b7f54687269667420616c7265616479207374617274656400000000000000000000600082015250565b7f54687269667420636c6f73656420746f206e6577207061727469636970616e7460008201527f7300000000000000000000000000000000000000000000000000000000000000602082015250565b7f526f756e6420636f6e747269627574696f6e206d75737420657863656564207a60008201527f65726f0000000000000000000000000000000000000000000000000000000000602082015250565b50565b7f556e6b6e6f776e20636f6e74726163742063616c6c204554484552207472616e60008201527f736665722072656a656374656400000000000000000000000000000000000000602082015250565b7f54687269667420616c726561647920636f6d706c65746564206f72206465616460008201527f6c696e65206e6f74206578636565646564000000000000000000000000000000602082015250565b7f53656e6420457468657220616d6f756e74206571756976616c656e7420746f2060008201527f6d696e696d756d207374616b6500000000000000000000000000000000000000602082015250565b7f41646472657373206e6f74206120636f6e7472696275746f7200000000000000600082015250565b611fd581611afa565b8114611fe057600080fd5b50565b611fec81611b38565b8114611ff757600080fd5b5056fea26469706673582212209001e0833d979e7a3e48452997d7cd01671b0073736584d032eac46028f8bca964736f6c63430008010033",
  "immutableReferences": {},
  "source": "// SPDX-License-Identifier: MIT\npragma solidity ^0.8.1;\n\ncontract ThriftManager {\n    // address with priviledge to adjust contract parameters\n    address admin;\n\n    // tracks the thrift count explicitly and ID implicitly\n    uint256 nextThriftId;\n\n    // fee for defaulting thrift participants is sinked to the contract account\n    uint256 public PENALTY_FEE = 0.001 ether;\n\n    // lock to guard reentrancy\n    bool lock;\n\n    // constructor\n    constructor() {\n        admin = _msgSender();\n    }\n\n    // defines the thrift struct\n    struct Thrift {\n        uint256 id;\n        uint256 maxParticipants;\n        uint256 numParticipants;            // number of participants in the thrift\n        uint256 minStake;\n        uint256 roundAmount;                // per participant contribution amount in a round\n        uint256 curRound;                   // tracks the current round count\n        uint256 roundContributionCount;     // track participants count that has contributed for every round\n        uint256 roundPeriod;                // time allowed for every round\n        uint startTime;                     // tracks time when thrift kickstarts\n        address creator;                    // address that started the thrift\n        bool start;                         // starts when max participants is reached\n        bool completed;                     // completed when all participants funds has been disbursed or a paricipant defaults oncontribution\n        mapping(uint256 => address payable) contributorsRank;\n        mapping(address => bool) contributors;\n        mapping(address => uint256) hasStaked;\n        mapping(uint256 => uint256) roundCompletionTime;                                // tracks when rounds are completed\n        mapping(uint256 => bool) roundCompleted;                                        // track round completion incrementally\n        // mapping(uint256 => uint256) roundContributionCount;                          // tracks num of contribution per round\n        mapping(uint256 => mapping(address => uint256)) roundContributionAmount;        // track  participants contribution for a given round\n    }\n\n    mapping(uint256 => Thrift) thrifts;\n    mapping(uint256 => uint256) thriftBalances;                                         // track funds in any given thrift\n\n    // start a new thrift\n    function createThrift(uint256 _maxParticipants, uint256 _roundAmount,uint256 _roundPeriod) payable external returns(bool) {\n        require(_maxParticipants > 0 && _maxParticipants <= 10, \"Only one to ten participants allowed\");\n        require(_roundAmount > 0, \"Round contribution must exceed zero\");\n        require(_roundPeriod > 0, \"Round period must exceed zero\");\n        Thrift storage newThrift = thrifts[nextThriftId];\n        newThrift.id = nextThriftId;\n        newThrift.maxParticipants = _maxParticipants;\n        newThrift.numParticipants = 1;\n        newThrift.roundAmount = _roundAmount;\n        newThrift.creator = _msgSender();\n        newThrift.roundPeriod = _roundPeriod;\n        newThrift.startTime = _timeStamp();\n        // calculate the minstake = maxParticipants * roundAmount\n        uint256 _minStake = (_maxParticipants * _roundAmount) + PENALTY_FEE;\n        newThrift.minStake = _minStake;\n        // creator should deposit minimum stake\n        require(_msgValue() >= _minStake, \"Send Ether amount equivalent to minimum stake\");\n        newThrift.contributorsRank[0] = payable(_msgSender());\n        newThrift.contributors[_msgSender()] = true;\n        newThrift.hasStaked[_msgSender()] = _msgValue();\n        nextThriftId++;\n        return true;\n    }\n\n    //  join a thrift with minimum stake deposit\n    // ** check that is not contributor lready\n    function joinThrift(uint256 _thriftID) payable external thriftExists(_thriftID) thriftNotStarted(_thriftID) returns(bool) {\n        if(_isContributor(_thriftID, _msgSender())) {\n            return false;\n        }\n        require(!_hasStarted(_thriftID), \"Thrift already started\");\n        Thrift storage thrift = thrifts[_thriftID];\n        uint256 position = thrift.numParticipants;\n        thrift.numParticipants += 1;\n        require(_msgValue() >= thrift.minStake, \"Send Ether amount equivalent to minimum stake\");\n        thrift.contributorsRank[position] = payable(_msgSender());\n        thrift.hasStaked[_msgSender()] = _msgValue();\n        // check if maximum participants is reached\n        if(thrift.numParticipants < (thrift.maxParticipants)) {\n            return true;\n        }else if(thrift.numParticipants == (thrift.maxParticipants)) {  // start thrift once max participantis reached\n            thrift.start = true;\n            return true;\n        }else {                                                         // revert if max participants exceeded\n            revert(\"Max participants reached already\");\n        }\n    }\n\n    // adding contribution to a thrift round\n    function contributeToThrift(uint256 _thriftID) payable external thriftExists(_thriftID) returns(bool) {\n        require(_isContributor(_thriftID, _msgSender()), \"Address not a contributor\");\n        require(_hasStarted(_thriftID), \"Thrift contribution is yet to start\");\n        Thrift storage thrift = thrifts[_thriftID];\n        uint256 numParticipants = thrift.numParticipants;\n        uint256 curRound = thrift.curRound;\n        require(thrift.roundContributionAmount[curRound][_msgSender()] == 0, \"Cannot contribute twice to a round\");\n        require(_msgValue() > 0 && _msgValue() >= thrift.roundAmount, \"Ether sent must exceed zero and rount amount\");\n        // account for rouund period and close thrift if its been ellapsed\n        if(curRound == 0) {\n            bool periodEllapsed = _timeStamp() > thrift.startTime + thrift.roundPeriod;\n            if(periodEllapsed) {\n                // punish defaulters and close thrift***************\n                for(uint i=0; i<numParticipants; i++) {\n                    if(thrift.roundContributionAmount[curRound][thrift.contributorsRank[i]] > 0) {\n                        address recipientContrib = thrift.contributorsRank[i];\n                        uint256 amount = thrift.roundContributionAmount[i][recipientContrib] + thrift.minStake;\n                        _sendViaCall(recipientContrib, amount);\n                    }\n                }\n                thrift.completed = true;\n                return false;\n            }\n        }else {\n            bool periodEllapsed = _timeStamp() > thrift.roundCompletionTime[curRound-1] + thrift.roundPeriod;\n            if(periodEllapsed) {\n                // punish defaulters and close thrift****************\n                for(uint i=0; i<numParticipants; i++) {\n                    if(thrift.roundContributionAmount[curRound][thrift.contributorsRank[i]] > 0) {\n                        address recipientContrib = thrift.contributorsRank[i];\n                        uint256 amount = thrift.roundContributionAmount[i][recipientContrib] + thrift.minStake;\n                        _sendViaCall(recipientContrib, amount);\n                    }\n                }\n                thrift.completed = true;\n                return false;\n            }\n        }\n        thrift.roundContributionCount += 1;\n        thrift.roundContributionAmount[curRound][_msgSender()] = _msgValue();\n        \n        // last contribution shold update relevant thrift state information and disburse funds\n        if(thrift.roundContributionCount == numParticipants) {\n            thrift.roundCompleted[curRound] = true;\n            thrift.roundCompletionTime[curRound] = _timeStamp();\n            // all rounds yet to complete\n            if(curRound < numParticipants) {\n                // disburse funds to round collector and update round \n                // ***\n                // *********************************************** //\n                address recipientContrib = thrift.contributorsRank[curRound];\n                _sendViaCall(recipientContrib, thrift.roundContributionAmount[curRound][recipientContrib]);\n                thrift.curRound += 1;\n            }\n        }\n        // thrift is completed\n        if(++curRound == numParticipants) {\n            thrift.completed = true;\n        }\n        return true;\n    }\n\n    // anyone can close thrift when \n    // 1. thrift is not yet completed and,\n    // 2. block timestamp has exceeded the deadline\n    function closeThrift(uint256 _thriftID) external returns(bool) {\n        Thrift storage thrift = thrifts[_thriftID];\n        bool completed = thrift.completed;\n        bool deadline = _timeStamp() > thrift.startTime + (thrift.roundPeriod * thrift.numParticipants);\n        require(!completed && deadline, \"Thrift already completed or deadline not exceeded\");\n        // check for defaulters and apply punishment\n        for(uint i=0; i<thrift.numParticipants; i++) {\n            uint256 contribAmount = thrift.roundContributionAmount[thrift.curRound][thrift.contributorsRank[i]];\n            if(contribAmount > 0) {\n                uint256 amount = contribAmount + thrift.minStake;\n                _sendViaCall(thrift.contributorsRank[i], amount);\n            }\n        }\n        thrift.completed = true;\n        return true;\n    }\n\n    // external agent can check if a thrift exists in the contract\n    function thriftValid(uint256 _thriftID) external view returns(bool){\n        return _thriftID < nextThriftId;\n    }\n\n\n    // HELPERS\n    //\n    function _msgSender() internal view returns(address) {\n        return msg.sender;\n    }\n\n    function _msgValue() internal view returns(uint256) {\n        return msg.value;\n    }\n\n    function _timeStamp() internal view returns(uint256) {\n        return block.timestamp;\n    }\n\n    function _isContributor(uint256 _thriftID, address _contributor) internal view thriftExists(_thriftID) returns(bool) {\n        Thrift storage thrift = thrifts[_thriftID];\n        return thrift.contributors[_contributor];\n    }\n\n    function _hasStarted(uint256 _thriftID) internal view thriftExists(_thriftID) returns(bool) {\n        Thrift storage thrift = thrifts[_thriftID];\n        return thrift.start;\n    }\n\n    function _sendViaCall(address _to, uint256 amount) public payable {\n        // Call returns a boolean value indicating success or failure.\n        // This is the current recommended method to use.\n        require(!lock, \"re-rentrant calls not allowed\");\n        lock = true;\n        (bool sent,) = payable(_to).call{value: amount}(\"\");\n        lock = false;\n        require(sent, \"Failed to send Ether\");\n    }\n\n    // MODIFIERS\n    //\n    modifier onlyAdmin() {\n        require(_msgSender() == admin, \"Sender is not an admin\");\n        _;\n    }\n\n    modifier thriftExists(uint256 _thriftID) {\n        require(_thriftID < nextThriftId, \"Thrift not existence\");\n        _;\n    }\n\n    modifier thriftNotStarted(uint256 _thriftID) {\n        require(!thrifts[_thriftID].start, \"Thrift closed to new participants\");\n        _;\n    }\n\n    // prevent ether transfers for unknown contract call */\n    fallback() payable external {\n        revert(\"Unknown contract call ETHER transfer rejected\");\n    }\n\n    // prevent forceful ETHER transfers on empty msg.data\n    receive() external payable {\n        revert(\"Forceful ETHER transfer rejected\");\n    }\n}",
  "sourcePath": "/home/nuel/oss/blockchain-developer-bootcamp-final-project/contracts/Thrift.sol",
  "compiler": {
    "name": "solc",
    "version": "0.8.1+commit.df193b15.Emscripten.clang"
  },
  "schemaVersion": "3.4.4",
  "updatedAt": "2022-02-02T07:28:57.159Z",
  "devdoc": {
    "kind": "dev",
    "methods": {},
    "version": 1
  },
  "userdoc": {
    "kind": "user",
    "methods": {},
    "version": 1
  }
}